:100000000C9456020C9473020C949F1F0C94730270
:100010000C9473020C9473020C9473020C9473028C
:100020000C9473020C9473020C94E4270C94B8287B
:100030000C945C220C9473020C9473020C94730263
:100040000C9473020C9473020C9473020C9473025C
:100050000C9473020C94FF220C9473020C947302A0
:100060000C9473020C9473020C9473020C9473023C
:100070000C9473020C9473020C9473020C9473022C
:100080000C9473020C9473020C9473020C9473021C
:100090000C9473020C9473020C9473020C9473020C
:1000A0000C9473020C9473020C947302A900AA00BE
:1000B000DA00D9002778287829782A7823782478D4
:1000C000257826782178227850004F002B001400E4
:1000D0001A00080015001700E100040016000700D0
:1000E00009000A00E0001D001B00060019000500C1
:1000F0000000AE00E20022522C0001001C0018009B
:100100000C00120013002A000B000D000E000F005F
:100110003300340011001000360037003800E500CD
:10012000010028002152E700A800000029001E005D
:100130001F00200021002200010001000100010039
:1001400001000100010001000100010001000100A7
:1001500000000100E30022522C00010023002400D3
:100160002500260027002A002D002E002F02300235
:10017000310235002D022E022F00300031003502F1
:10018000010028002152E6000100000029001E02A3
:100190001F022002210222020100500051005200E1
:1001A0004F000100010001000100010001000100F9
:1001B00000000100E30022522C000100230224026F
:1001C0002502260227022A005000510052004F004B
:1001D0000100010001000100010001000100010017
:1001E000010028002152E60001000000010001008A
:1001F00001000100010001000100010001000100F7
:10020000010001003A003B003C003D003E003F0081
:1002100000000100010001000100000001000100D8
:1002200001000100010001000100010001000100C6
:10023000010001004000410042004300440045002D
:1002400000000100010001000100000000000000AA
:10025000000000002A2B2800000000000000000021
:100260000000000000000029000000002C1E3420C7
:10027000212224342627252E362D3738271E1F20ED
:100280002122232425263333362E37381F04050632
:100290000708090A0B0C0D0E0F1011121314151676
:1002A0001718191A1B1C1D2F3130232D3504050674
:1002B0000708090A0B0C0D0E0F1011121314151656
:1002C0001718191A1B1C1D2F3130354C0000000067
:1002D000000000000000000000000000000000001E
:1002E000000000000000000000000000000000000E
:1002F0007E0F00D4FFFFFFC70000007818035600F0
:100300004F004900440020004500720067006F0064
:100310002000530000000A0356004F00490044002B
:1003200000000403090409025B00030100A0FA09AC
:100330000400000103010100092111010001224014
:100340000007058103080001090401000203000001
:10035000000921110100012222000705820320006B
:100360000107050303200001090402000103000046
:100370000009211101000122B600070584032000B5
:1003800001120100020000000855F035350001019E
:100390000200010660FF0961A1010962150026FF44
:1003A000009520750881020963150026FF0095203D
:1003B00075089102C005010902A10185020901A188
:1003C0000005091901290815002501950875018105
:1003D000020501093009311581257F9502750881D3
:1003E0000609381581257F950175088106050C0AD7
:1003F00038021581257F950175088106C0C0050169
:100400000980A101850319012AB700150126B7004B
:10041000950175108100C0050C0901A10185041921
:10042000012AA002150126A002950175108100C0C5
:1004300005010906A1018506050719E029E7150050
:1004400025019508750181020507190029EF15009E
:10045000250195F075018102050819012905950509
:1004600075019102950175039101C005010906A16D
:1004700001050719E029E715002501950875018197
:10048000029501750881010507190029FF1500264D
:10049000FF009506750881000508190129059505D5
:1004A00075019102950175039101C00011241FBED1
:1004B000CFEFDAE0DEBFCDBF11E0A0E0B1E0E8E0D1
:1004C000F7E502C005900D92A43DB107D9F723E0EE
:1004D000A4EDB1E001C01D92AC31B207E1F70E947A
:1004E0006A140C942E2B0C94000023E041E062E08F
:1004F0000E940603089584E008958430B8F46830BB
:10050000A8F4463098F450E096E0699F400D511DE4
:100510001124FA0190E3899FE00DF11D1124EE0FE3
:10052000FF1FE453FF4F85919491089580E090E080
:10053000089584E008958430B8F46230A8F4E82F78
:10054000F0E0EE0FFF1F6E0F7F2F711D660F771FFC
:10055000E1E0E427E60FF72FF11DEE0FFF1FE45552
:10056000FF4F85919491089580E090E0089581E097
:10057000089581E008950E94B902089508950E94A7
:10058000BE020895A5E0B0E0E8ECF2E00C949A2AEF
:1005900049835A833091DB0189819A81311119C0D5
:1005A000662399F0222389F00E946708182F682F8C
:1005B00089819A810E94340869817A81812F0E9401
:1005C000DF0E2596E3E00C94B62A0E944E08182F01
:1005D000F3CF0E94670869817A81F1CFFC01262F51
:1005E000408151816281738184810E94C202089599
:1005F00081E00895CF93DF93EC0160E00E94EE026A
:10060000BE010E94BF02DF91CF910895E1E0F0E0CA
:10061000DF0102C0AA0FBB1F6A95E2F7BD01DF012F
:1006200002C0AA0FBB1F4A95E2F76A2B01C0EE0F6A
:100630002A95EAF7962F9823961302C08E2B0895D9
:10064000E0958E230895242F462F682F8091F10185
:100650000E9406030E94960708950E945A1008956A
:100660000E945E10089508950E942D070E94330392
:100670002FEF84E39CE0215080409040E1F700C0E0
:10068000000008950E9434030E94232308950E94CD
:1006900034030E94342308950F931F93CF93DF9365
:1006A0008C0161E00E94EE02EC01B8010E9461172A
:1006B000811106C080E0DF91CF911F910F910895C5
:1006C000B801CE010E94BB028823A1F3B801CE017C
:1006D0000E94BC1E882371F3B801CE010E949718B6
:1006E000882341F3B801CE010E942E1E882311F306
:1006F000F8018281882361F0C330FCE7DF07E9F06D
:1007000058F4C115ECE7DE07A9F0C130DC47B9F0B9
:10071000C8010E94B702CFCFCB358CE7D807A9F02C
:10072000CC35ECE7DE0771F0CA35DC4789F70E946B
:10073000640CEECF0E944203BDCF0E946C0C0E945D
:100740004703B8CF0E945A0CE3CF0E94680CE0CF59
:100750000E9439220E94D20308950E94D6030E946B
:100760003E22089508950E94B203089581E00895FD
:100770000895CF93DF93D82F0E94B603C82F882304
:1007800019F08D2F0E94B8038C2FDF91CF9108951F
:100790000895CF93C82F0E94B3038C2F0E94B903F2
:1007A000CF91089580E00E94C90308950E94C5205A
:1007B0000E94C9030895CF930E94C520C82F80913D
:1007C000D6018C1779F0C093D6010E94C82260939D
:1007D000D7017093D8018093D9019093DA018C2FBF
:1007E0000E94C903CF910895ABE0B0E0EAEFF3E0D7
:1007F0000C949B2A4F83588769877A878B8761116E
:100800000E94A50B1E821D8285E0FE013796DE0147
:10081000119601900D928A95E1F78C819D81892B2B
:1008200061F449815A816B817C818D819E810E9416
:10083000CE0A2B96E2E00C94B72A89819A8189230B
:100840008F3F79F3CE0101960E94F8028111E9CF22
:10085000F0CFFC01808191810E9494080895662365
:1008600029F00E94EE140E94C11508950E944815B7
:10087000FACFCF93C82F8823B9F08CEF8C0F813A31
:10088000A8F46C2F80910001909101010E945F21DA
:10089000882329F08C2F0E94650B0E94C60B8C2F99
:1008A0000E945D0B0E94C60BCF91089580E28C0FD1
:1008B000883048F4C77081E001C0880FCA95EAF714
:1008C0000E94880BEFCFEBE5EC0FE33040F4F0E053
:1008D000E059FE4F808190E00E940121E5CFE8E5DC
:1008E000EC0FE93150F4F0E0EE0FFF1FE25CFE4F39
:1008F000808191810E942621D7CF83E38C0F8331A1
:1009000098F661E08C2F0E942F04CECF882381F1CE
:100910009CEF980F913A28F40E94650B0E94C60B39
:10092000089590E2980F983050F4877091E001C0DC
:10093000990F8A95EAF7892F0E948E0BEFCF9BE5DE
:10094000980F933028F490E080E00E9401210895F0
:1009500098E5980F993128F490E080E00E942621D4
:10096000089593E3980F933118F460E00E942F04E8
:1009700008951F93CF93DF93182FEB010E94390442
:10098000209739F4812F0E948604DF91CF911F9127
:1009900008958FE99FE00197F1F700C000002197CB
:1009A000EFCF70E060E0893311F460E570E00E9401
:1009B000B9040895882321F00E94880B0E94C60B79
:1009C0000895882321F00E948E0B0E94C60B089583
:1009D000B0E0A0E0EEEEF4E00C94942A6C01D62F87
:1009E000C72FFC011281F580F2949FE0F9220E944A
:1009F0007E0BE82E8823B9F0E12E1123A1F08C2F75
:100A0000807F803421F080E28D0F8830D0F080919B
:100A1000F80282FF16C082E00E94290C0E947E0B21
:100A200091E0E82EE926BC2EB2948FE0B822FBE0DC
:100A3000FB1508F468C0EB2DF0E0E05DF44D0C947C
:100A40007E2AE12CF0CF0C2F0F70C07F11F00295A1
:100A5000007F112399F0002359F080E28D0F883038
:100A600010F0D11107C0802F0E94880B0E94C60B86
:100A70008D2F41C0802F0E94980BF8CF8D2F0E94A0
:100A80008604002309F43FC080E28D0F883010F007
:100A9000D11104C0802F0E948E0B03C0802F0E94B2
:100AA0009E0B0E94C60B2FC00C2F0F70C07FC03250
:100AB00011F00295007FDD2381F0D13009F468C088
:100AC000112309F472C0FF2009F468C0F601858182
:100AD00080FFCECF8F70858361C08091F80282FD48
:100AE00033C0112359F0002329F0802F0E94880B76
:100AF0000E94C60B80E00E94390405C080E00E947D
:100B000086040111C7CFEB2DE850FF0B349720F47A
:100B10000E94C5200E94C903EE2089F00E947A0B32
:100B200080FD0DC0F60112820E94740B0E94A8077E
:100B3000C6010E94ED060E94740B0E94B407CDB757
:100B4000DEB7E9E00C94B02A112389F0F11006C059
:100B50000E94A80B802B0E94DA04D5CF21E0F2126C
:100B6000F7CF0E94A80B802B0E94AF0BCCCFF110C7
:100B700006C00E94BC0B802F0E94E104C4CF31E06C
:100B8000F31609F2802F0E94E1040E94BC0BBBCF38
:100B9000112331F085E08F1508F4B5CF802FDBCF1E
:100BA00094E09F1508F4AFCFE6CFFF2021F3D933AF
:100BB00049F4FFEF27EE33E0F15020403040E1F7F9
:100BC00000C000008D2F0E9486049DCF8C2F86953B
:100BD0008695837069F0813009F095CF8D2F9C2F19
:100BE0009370111102C080E090E00E9426218BCF0B
:100BF0008D2F9C2F9370111102C080E090E00E9415
:100C0000012181CF612F8D2F0E942F047CCF8C2F4B
:100C1000837079F5111177CF4D2F42954695477026
:100C2000440F440F8D2F8F70042E01C0880F0A943B
:100C3000EAF72D2F2071D4FF07C02FE030E001C06C
:100C4000220F4A95EAF72095C695C695C370822B68
:100C5000C23049F058F4C13019F00E94870753CFD1
:100C60000E94810750CF0E948D074DCF0E947E07C2
:100C70004ACF8695112311F08C2F8170882309F4B7
:100C800042CF4D2F429546954770440F440F8D2F0C
:100C90008F70042E01C0880F0A94EAF72D2F20715F
:100CA000D4FF07C02FE030E001C0220F4A95EAF7D9
:100CB0002095C695C695C370822BC23049F058F472
:100CC000C13019F00E94D3071ECF0E94CD071BCF61
:100CD0000E94D90718CF0E94960715CFCF70112315
:100CE00029F08C2F0E94A8078D2F35CF8D2F0E94C1
:100CF000E1048C2F0E94B40706CFD23F51F160F47B
:100D0000D03FB9F0D13F81F0112309F449C0F1106F
:100D1000AFCE8C2F8F7121C0D33F11F1D43FA1F7FB
:100D20008091F80282FD26C08C2F8F71112311F360
:100D300014C0112349F084E08F1508F4E4CE8C2F01
:100D40008F710E94C107DFCE95E09F1508F4DBCEBE
:100D5000F6CF8C2F8F711111CDCF0E94A807D3CE63
:100D6000112329F08C2F8F710E949F07CCCE0E94F7
:100D70009B07C9CE112349F0CF718C2F0E94A80781
:100D800063E08C2F0E940B0CBECE81E00E94290CE8
:100D9000E1E0EF1508F0B7CE82E00E94290CB3CE57
:100DA000F11005CF8C2F8F71A5CF0F931F93CF9389
:100DB000DF93EC01688179818A810E949F088C0110
:100DC0000E94DF070E947D07B801CE010E94E8045F
:100DD000DF91CF911F910F910895CF93DF93EC0195
:100DE0008B819C81892B29F08881998189238F3F70
:100DF00051F4DF91CF910895CE010E94D506CE0126
:100E00000E94FA02F6CFCE010E944C038111F4CF6A
:100E10000E947E0B882369F38A81882351F3809195
:100E2000F80282FFE6CF82E00E94290CE2CF90E038
:100E300080E00E94012190E080E00E9426210E9433
:100E4000A50B0E94C60B0E94DD150E94C1150895D6
:100E50000E946D0B0E94170708950E94950B0E9437
:100E60002807089592959F70963091F058F4925FFC
:100E70009F70923058F4803F19F030F4883E30F47F
:100E800081E008959A5FF4CF843FD1F380E0089524
:100E9000883EB0F3813FD1F7F3CFFC018381948189
:100EA000892B29F08081918189238F3F11F480E083
:100EB0000895808191810E9494080E9432070895CC
:100EC000A5E0B0E0E6E6F7E00C949B2A2596E2E088
:100ED0000C94B72AA6E0B0E0E0E7F7E00C949B2A78
:100EE0002696E2E00C94B72A08950E9474070895AC
:100EF0000E9475078093F201089508950E94780773
:100F000008959091F201892B0E947807089590919D
:100F1000F20189230E94780708959091F2018927B0
:100F20000E94780708950E94750208950E94930711
:100F30008093F101089580E00E949607089591E062
:100F400001C0990F8A95EAF7892F0E9496070895A4
:100F500021E030E001C0220F8A95EAF78091F1018B
:100F6000822B0E949607089521E030E001C0220FF5
:100F70008A95EAF720958091F10182230E949607D5
:100F8000089521E030E001C0220F8A95EAF78091B0
:100F9000F10182270E94960708959091F101892B13
:100FA0000E94960708959091F10189230E94960767
:100FB00008959091F10189270E9496070895089558
:100FC000262F277091E001C0990F2A95EAF723E0B8
:100FD000769567952A95E1F7FB01EE0FFF1FE60F67
:100FE000F71FE40FF51F50E040E0682F70E081919B
:100FF000DF0111979B01042E02C0369527950A94B4
:10100000E2F7217021952827292328272C934F5F69
:101010005F4F4330510559F70895A82FA77023E07B
:10102000969587952A95E1F7FC01EE0FFF1FE80FD3
:10103000F91FE60FF71F50E040E080E0219130E01B
:101040000A2E02C0369527950A94E2F721703327BD
:10105000042E01C0220F0A94EAF7822B4F5F5F4FE4
:101060004330510559F70895282F862F983070F492
:10107000263058F4622F70E026E0929F600D711DBB
:1010800011244FED51E00E94E00708959C5F9230DB
:10109000E0F7622F70E04CED51E0F5CF292F98304A
:1010A00068F4863090F490E06FED71E036E0239FB5
:1010B000800D911D11240E940D0808952C5F22308F
:1010C00020F46CED71E090E0F6CF80E00895CF92CF
:1010D000DF92FF920F931F93CF93DF936C010091E8
:1010E000F1018091F201082BC7E0D0E010E0FC2E66
:1010F000C8010C2E02C0959587950A94E2F780FDF1
:101100000CC02197A0F7F12C8F2DDF91CF911F916B
:101110000F91FF90DF90CF900895B6018C2F0E9421
:10112000F80E019771F3F0CFCF93DF93EC010E949B
:101130006708BE010E94F80EDF91CF9108951F93BA
:10114000CF93DF93EB019091DB01992339F0CB0131
:101150000E949408DF91CF911F910895882369F030
:10116000CB010E946708182F682FCE010E94340817
:10117000BE01812F0E94F80EEDCFCB010E944E08D8
:10118000182FF6CF1F93CF93DF93C091F30116E092
:101190008091F4018C1304C0DF91CF911F910895C9
:1011A000D0E01C9FF0011D9FF00D1124EB50FE4F6D
:1011B0004081518162817381848195810E946A0797
:1011C0002196C770E5CF409125025091260260918B
:1011D0002702709128028091290290912A020E9490
:1011E0006A0708951F93CF93DF9380912A02807F2F
:1011F00009F049C080912702882309F444C08091F6
:10120000F301C091F4016091250270912602A09132
:101210002802B0912902D62FD72316E0C81799F1DA
:1012200090E0109711F0DF3F19F401968770F6CF28
:10123000189F9001199F300D1124F901EB50FE4FBA
:1012400041814713F2CF40814613EFCF42814111D4
:10125000ECCF438154814A1B5B0B483C510528F776
:1012600080912A028F70806180932A02F901E650F2
:10127000FE4F80818F708061808385E292E00E94C2
:10128000ED060E94C208DF91CF911F910895A1E160
:10129000B0E0EDE4F9E00C94932A8C0185E0F801CC
:1012A000DE011D9601900D928A95E1F7F801E2802A
:1012B00085E2C82E82E0D82E609128027091290222
:1012C0006115710509F44EC1909125022091260205
:1012D000892F82238F3F09F445C140815181A3802A
:1012E000B480F0902702F501E61BF70BFF2009F40C
:1012F000EAC080912A02382F307FE83CF10508F0DF
:10130000A3C031116DC0FE2C251316C0941314C058
:10131000E11012C08F70806180932A020E94E3085E
:10132000C6010E94ED0680912A02F80185838F2D67
:101330006196EAE00C94AF2AA114B10429F0842F3D
:1013400085238F3F09F027C180E0F82FF170DF2E51
:1013500080FF3CC08091F3012091F40136E08213BC
:1013600015C04D875E878D859E850E949408292F24
:1013700022952F702230F0F0243018F59F70F1F094
:10138000F8019581907FD1F4D12C1EC090E0389F58
:10139000F001399FF00D1124EB50FE4F6181651370
:1013A00006C06081641303C06281E6120FC001961B
:1013B0008770D5CF9F7011F0882331F3805E88301D
:1013C00018F3C8010E94ED06FD2CB1CFEE2009F400
:1013D000AECF80912A02816080932A02F12CA7CFA0
:1013E000251306C0941304C0F801EE2009F487C049
:1013F000C8010E944D07882319F1EE2009F1809160
:101400002A02803270F0209125023091260238871E
:101410002F831986BB86AA868C87CE0107960E94E9
:10142000ED0686E0F801A5E2B2E001900D928A9502
:10143000E1F70E94F2080E94E308FF24F39477CFBB
:10144000C8010E94ED06F9CF311113C07A2DB98A77
:10145000A88A6E2D89890E94600785E292E00E9429
:10146000ED0686E0F60111928A95E9F70E94E308FD
:10147000B5CF25130FC094130DC0E1100BC0F801B8
:101480008583C8010E94ED0686E0F60111928A95D7
:10149000E9F74DCFC8010E944D07882389F2EE205D
:1014A00079F280912A02803208F4BBCF2091250284
:1014B000309126023A8329831B82BD82AC828E83BF
:1014C000CE010196ACCFE83CF10508F03EC0FE2C01
:1014D000EE2009F4B5CF25132AC0941328C08091BB
:1014E0002A0280FD1BC0982F907FC1F0F8018583F0
:1014F000903F31F0982F907F905F8F70892B85837C
:10150000C8010E94ED0686E0F801A5E2B2E0019074
:101510000D928A95E1F70E94E30809CF86E0F80171
:10152000A5E2B2E001900D928A95E1F700CFC801E3
:101530000E944D07811175CF80912A0281608093AE
:101540002A02C8010E94ED06F2CE7A2DB98AA88A35
:101550006E2D89890E94600786E0F60111928A95B6
:10156000E9F7D9CFEE2009F46BCFC8010E944D07EF
:10157000F82E882309F464CF86E0F801A5E2B2E0F2
:1015800001900D928A95E1F785E292E00E9429048C
:101590000E94F208C0CF81E08E25D7CEACE0B0E04B
:1015A000E4EDFAE00C949A2A4F83588769877A878A
:1015B0008B879C87CE0107960E944709882369F094
:1015C0008A859B85892B39F04F815885842F852307
:1015D0008F3F09F06BC016E05FC086E0FE013796D2
:1015E000DE01119601900D928A95E1F78A859B851F
:1015F000892B89F38F81988589238F3F61F320910F
:10160000F40130E0C9010196877099274091F301F8
:101610004817190671F40E942D071092F4011092D8
:10162000F30186E0E5E2F2E0DF011D928A95E9F739
:10163000D2CF96E0929FD001939FB00D1124AB5072
:10164000BE4FFE01319601900D929A95E1F780937D
:10165000F4010E94C208BFCF819FC00111248B50AA
:101660009E4F0E9447098823E9F0E091F3011E9FF5
:10167000F0011124EB50FE4F408151816281738152
:10168000848195810E946A078091F30190E0019620
:10169000877099278093F3018091F3019091F40171
:1016A0008913DACF2C96E3E00C94B62A69857A8503
:1016B0008B859C850E946A078ECF682F80910001E0
:1016C000909101010E94DF210895682F809100010F
:1016D000909101010E94ED21089580910001909167
:1016E00001010E94FB21089580914B02859585950B
:1016F0008595089580914B028770089590914B02D3
:10170000977081E009F480E0089580916E02089559
:1017100090916E02892B80936E020895809590912E
:101720006E02982390936E02089510926E020895AF
:1017300090916D02892B80936D0208958095909110
:101740006D02982390936D02089510926D02089592
:1017500080914C02089508950E94AB0B08959091DA
:10176000F80292FF08C090914C02981721F08093E4
:101770004C020E94AC0B089580914C02882329F002
:1017800010924C0280E00E94AC0B0895CF93DF933F
:10179000E0910001F091010180916E028083E0915F
:1017A0000001F0910101808190916D02892B80836D
:1017B00090914C02992381F0E0910001F091010198
:1017C0008081892B808380910001909101010E948A
:1017D0004B2181110E94BC0BC0910001D0910101ED
:1017E00040E250E06BE272E0CE010E94D62A892BE3
:1017F00059F080E2FE01ABE2B2E001900D928A95D1
:10180000E1F7CE010E94D920DF91CF91089508958C
:101810000E94070C08959091F80292FF11C098E081
:10182000899F90011124622B60934B020E94A807AC
:1018300080914B028595859585950E94080C0895A9
:101840000E94A807089510924B0280E00E94080CA5
:10185000089590914B028095892380934B02282F05
:10186000277091F4282F082E000C330B92171306C3
:1018700059F09091F80292FF07C08595859585955E
:101880000E94B4070E94230C08959091F80292FBE5
:10189000222720F9281769F080FB92F99093F8022B
:1018A0008091F7029091F8020E948E0C82E00E94D3
:1018B000290C08958091F80282FB882780F991E035
:1018C00089270E94450C089581E00E94450C0895E7
:1018D00080E00E94450C08956FEF7FEF90E080E07C
:1018E0000E94182B089590E080E00E94F42A873E21
:1018F0009E4F19F40E94FB16089580E0089582E03F
:1019000090E00E94EC2A089583E090E00E94EC2A87
:10191000089584E090E00E94F42A0895BC0184E0D8
:1019200090E00E94182B0895AB01BC018FE090E07D
:101930000E940C2B0895AB01BC0183E190E00E9452
:101940000C2B089560E070E0CB010E949B0C089581
:1019500060E070E0CB010E94940C0E94A20C0895FC
:1019600067EE7EEF90E080E00E94182B60E082E05E
:1019700090E00E94FA2A60E083E090E00E94FA2A58
:101980001092F20160E074E184E090E00E94182B74
:1019900060E086E090E00E94FA2A6FEF87E090E036
:1019A0000E94FA2A40E050E0BA0188E090E00E94EC
:1019B0000C2B60E08DE090E00E94FA2A40E050E0BD
:1019C000BA0188E190E00E940C2B60E087E190E092
:1019D0000E94FA2A40E050E0BA018CE190E00E94B7
:1019E0000C2B70E060E080E290E00E94182B40E059
:1019F00050E0BA0188E190E00E940C2B80E00E9448
:101A000014170E9443170E94A80C08950E94B00C5E
:101A10000895682F8EE090E00E94FA2A08950E94AF
:101A2000C822609381027093820280938302909314
:101A3000840260937D0270937E0280937F02909374
:101A4000800208950E94C8226093810270938202EE
:101A500080938302909384026093790270937A0258
:101A600080937B0290937C020895089508950E94CC
:101A7000360D089508950E943A0D089582E290E18E
:101A80000E94BB200E94350D0E94370D08950E94D0
:101A90000B120895089508950E944A0D0E944B0D5F
:101AA00008950E943E100E94C80308950E94B32228
:101AB0000E94E20F0E9453170E9434120E947B1A68
:101AC0000E946C110E94510D0E947F180E943E12CC
:101AD0000E943B0D0895AAE0B0E0E1E7FDE00C9420
:101AE000932A0E948F1181E7A82E82E0B82E7501FB
:101AF00010E0F70101917F01812F0E9461101F5FAB
:101B0000183009F440C00817A1F38091850281FDC7
:101B10000E9467100E94470DC82E10E0812F0E947E
:101B20006110082FF50181915F01081731F1D02E66
:101B3000D826F12CEE24E3948D2D8E21B1F0CC200B
:101B4000A1F0FE821F8391E0802F8E2109F490E0A6
:101B500098870E94BC228160782F9A8789874E815E
:101B60005F8168858A850E94F403F394EE0CF6E0A9
:101B7000FF12E2CFF501319700831F5F183071F635
:101B80000E940F0D20C00813C0CF0E94BC228C0100
:101B900080916F029091700208171907A1F08FEFE2
:101BA00089838A831B820E94BC228160782F9D8357
:101BB0008C8349815A816B818D810E94F40310933B
:101BC000700200936F020E940B120E94FF1A811193
:101BD0000E94220D0E94FF150E94DB032A96EAE074
:101BE0000C94AF2ACF93DF930E94FD0EEC01811578
:101BF00020E59207D0F5811530E4930708F086C000
:101C0000803E910518F58D3C910508F07DC0883A1D
:101C1000910570F4853A910508F06EC08130910508
:101C200001F10097F1F00497E0F4D0E0C0E019C0B2
:101C3000813C9105D0F7C85AD0E0CC0FDD1FCD58BC
:101C4000DE4F0990D881C02DD4640BC0811590421D
:101C500008F0A8C0C11581E0D80718F4C83ED10526
:101C600020F7CE01DF91CF910895803622E59207CB
:101C700010F5803432E5930708F052C08032924567
:101C800008F047C0C11582E5D80708F47DC02C2FA5
:101C90002695269540E2249F900111248C2F837075
:101CA000C1E0D0E002C0CC0FDD1F8A95E2F7C22B65
:101CB000D32BDD68D6CF803A22E5920760F48038D6
:101CC00032E5930708F441C0CF71D0E0DC2FCC2778
:101CD000C46FD06AC6CF803C42E5940708F449C07F
:101CE000C03E82E5D80708F0A0CFDC2FCC27CC2758
:101CF000DF71C06FD06AB5CFC55AD0E0CB55DE4F8B
:101D0000C881D0E0D064ADCFD065ABCFDF70D06AF2
:101D1000A8CFCF71D0E0DC2FCC27C16FD06AA1CF84
:101D2000282F26952695277080E2289F9001112460
:101D30008C2F8370C1E0D0E002C0CC0FDD1F8A95EC
:101D4000E2F7C22BD32BDC688CCF282F2695269563
:101D5000277040E2249F900111248370C1E0D0E0FD
:101D600002C0CC0FDD1F8A95E2F7C22BD32BDA68B5
:101D700078CF8F710E949F0FC82FD0E0DC2FCC2727
:101D8000CC27DF71D0626DCF8C2F8F710E949F0F97
:101D900035E0D695C7953A95E1F7CF709C2FEC01C9
:101DA000D0695FCF8D2F8F710E949F0F90E0982F89
:101DB000882788279F719C012C2BE901E3CF78307D
:101DC00038F4663050F4462F672F0E943C1D08956A
:101DD0007D3F31F441E0623040F090E080E00895D2
:101DE0007C3FD9F76230C8F740E00E94481D089553
:101DF0000E94DF0E0E94F20D089582389105B9F11C
:101E0000B0F48133910509F47DC048F4893291051D
:101E100009F46DC08A32910509F47BC008958533B9
:101E2000910509F45FC08933910509F10895833E56
:101E30009105D9F138F4803E910529F1823E910552
:101E400079F10895863E9105D9F1873E910509F40F
:101E50003EC0843E910541F52091F80221FF24C047
:101E60008091F70284FD19C087EE90E008952091DB
:101E7000F702237009F05AC02091F80223FF14C022
:101E800089E290E008952091F70220FD38C030915A
:101E9000F80230FF09C024FF43C090E080E00895BD
:101EA0002091F70222FDF7CF08952091F70222FD3D
:101EB0003AC03091F80230FD39C024FFF5CFEDCFA4
:101EC0002091F70223FFF0CF24FDE7CFCDCF209163
:101ED000F70223FD2EC03091F80231FFEECF84EEE1
:101EE00090E008952091F70225FFDECFC9CF209121
:101EF000F70225FD21C02091F80223FFD5CF89E309
:101F000090E0D2CF2091F70226FFCECF8AE290E078
:101F100008952091F70226FFC7CF81E390E008954E
:101F200083EE90E0089582EE90E0089580EE90E0D8
:101F3000089586EE90E0089585E390E008959091ED
:101F4000F70292FF06C0282F28712830F9F4877F06
:101F5000846093FF06C0282F28712831F1F4877E12
:101F600084612091F80220FF06C0382F3871383084
:101F7000D9F4877F816021FF06C0282F287128317E
:101F8000D1F4877E816194FD877E0895282F247186
:101F90002430F9F68B7F8860DCCF282F2471243120
:101FA00001F78B7E8861DDCF382F3171313019F721
:101FB0008E7F8860E0CF282F2171213121F78E7E1E
:101FC0008861E1CF1092F3021092F4021092F502B0
:101FD0001092F6020895CF92DF92EF92FF926B017A
:101FE0007C010E940B1281110EC00E94C822C61AE9
:101FF000D70AE80AF90AC092F302D092F402E092FA
:10200000F502F092F602FF90EF90DF90CF900895E6
:102010000F931F930E940B12882329F00E94C8225D
:102020001F910F9108950E94C8220091F302109110
:10203000F4022091F5023091F602600F711F821FA9
:10204000931FEECF80E008950E946C0C08950E94CB
:102050008F118FE39CE90197F1F700C000000E9407
:102060008F1180E00E94611080FF04C00E94241044
:102070000E94232308950E94271008950E94730C44
:10208000811102C00E94060D0E947F0C8093850280
:102090000E94890C9093F8028093F7020E943B10F3
:1020A0000E94840C0E947E078091F1010E94930798
:1020B000089508950E945910089508950E945D1092
:1020C0000895E82FF0E0EE5FFC4F808108950895B9
:1020D00080EA8A95F1F7089500C008950E9468107B
:1020E000089508950E9471100895EF92FF921F9332
:1020F000CF93DF9300D000D0CDB7DEB70E940B1294
:10210000182F60910A03882309F447C019821A82A4
:102110001B821C82862F90E09E012F5F3F4F79012A
:10212000B9018E5F9C4F0E944C128823E9F0809188
:10213000F90290E044E050E0B7018E5F9C4F0E94AE
:10214000D62A21E020938602892BC9F410E00E9450
:102150003003812F0F900F900F900F90DF91CF9150
:102160001F91FF90EF90089580918602882371F36C
:1021700084E0F70111928A95E9F710928602E091C6
:10218000F902F0E0EE5FFC4F89819A81AB81BC815E
:1021900080839183A283B383DACF70E06E5F7C4F3C
:1021A0008091F90290E08E5F9C4F0E94D3120E94B2
:1021B0007210CFCFF894E82FE295EF70F0E031A1E4
:1021C000282F2F7081E090E001C0880F2A95EAF750
:1021D000982F9095932391A392A1892B82A3789411
:1021E0000895CF93DF9381E30E94DA1083E30E9486
:1021F000DA1082E30E94DA1086E30E94DA10C8EA5D
:10220000D1E089918F3F11F00E94DA1081E0CE3A3F
:10221000D807B9F7DF91CF910895B0E0A0E0E3E1EE
:10222000F1E10C94952AEC01D62E062F10E0C8019E
:1022300082559E4F7C01FC0180818F3F09F445C08F
:10224000F894E82FE295EF70F0E091A18F7021E013
:1022500030E001C0220F8A95EAF7892F822B81A3F3
:1022600082A12095282322A378940E946C10E8EA8A
:10227000F1E04EEA51E031E0C12C21912F3F51F1C4
:10228000A22FA295AF70B0E090968C9190E02F7045
:1022900002C0959587952A95E2F780FD1BC0832F94
:1022A000C82A330F4E175F0741F7F70180818F3F30
:1022B00011F00E94DA1061E0C11001C060E08D2DC4
:1022C0000E946E10C00FD11FC882CDB7DEB7E8E004
:1022D0000C94B12A80E0E4CF809102018091020148
:1022E00094E0811190E090930A0384E0891B80932D
:1022F000F9020E94F11088E0E2E0F3E0DF01982F9C
:102300001D929A95E9F7EAEFF2E0DF011D928A95B6
:10231000E9F784E00E94CD110E942D030895A8E002
:10232000B0E0E5E9F1E10C94982A8E010F5F1F4FB0
:1023300088E0F80111928A95E9F7F12C6F2DC80118
:102340000E940D11F394F4E0FF12F8CF48E050E042
:10235000B8018AEF92E00E94D62A21E0009709F4A2
:1023600020E0892B41F088E0F801AAEFB2E001906B
:102370000D928A95E1F760910A0370E06E5F7C4FE1
:1023800044E08AEF92E00E94CE11182F0E9475104F
:10239000812B2896E5E00C94B42A0895CF92DF9221
:1023A000EF92FF920F931F93CF936C017B01042F49
:1023B000222349F081E0809389020E94BC229093FD
:1023C000880280938702C0918902C1110AC0C0E0CF
:1023D0008C2FCF911F910F91FF90EF90DF90CF90B6
:1023E000089580918702909188020E94D4220597D7
:1023F00070F310E0A801B601C7010E94D62A892B0C
:1024000041F0A801B601C7010E94E32A1092890297
:10241000DFCFC0E0FBCFCF93DF9380918C0281119F
:1024200017C0C8ECD0E00E94642A81110EC08FE36F
:102430009CE90197F1F700C000002197A1F782E025
:1024400080938C020E945F2A03C081E080938C02FB
:1024500081E090918C02913009F080E0DF91CF9182
:1024600008950E940B1208950E9431128093020178
:102470000E940B1281110E94821208950E940B1279
:10248000811102C00E948512089581E090918D0211
:102490009A3008F080E008950F931F93CF93DF9355
:1024A000EC018B0180918D028A30B8F4B801CE0125
:1024B0000E94D012C82F811122C080918D028F3FBF
:1024C000B9F40E94BC2290938B0280938A028C2FD5
:1024D000DF91CF911F910F91089580918A02909181
:1024E0008B020E94D422843F914000F7C0E0EFCFDE
:1024F0008F5F80938D028A3020F7C1E0E8CF109281
:102500008D02E5CF0E94591F08950E945C1F089517
:10251000B0E0A0E0EEE8F2E10C94962A7901C82F31
:10252000880FDD0B41155105A9F0FE0193E0EE0F78
:10253000FF1F9A95E1F7ED5FFE4F818192818257EF
:102540009D4F208130E04217530708F49A01A901FA
:102550000E94E32ACE010E944520D82E8823D1F084
:1025600001151105B9F083E0CC0FDD1F8A95E1F765
:10257000FE01ED5FFE4F438150E00417150708F49C
:10258000A801CD5FDE4F6C817D8162577D4FC70111
:102590000E94E32A8D2DCDB7DEB7E7E00C94B22A76
:1025A0000E94F41308950E9415140895A4E0B0E069
:1025B000ECEDF2E10C94992A6091A9027091AA02C3
:1025C0008091AB029091AC020E94E32211E064364C
:1025D00071058105910518F10E9408106E5F7F4F0B
:1025E0008F4F9F4F69837A838B839C8310E000E039
:1025F00030E020E044E050E0BE016F5F7F4F84E0B8
:102600000E948812182F882351F00E94C8226093DC
:10261000A9027093AA028093AB029093AC02812F1F
:102620002496E4E00C94B52AA1E0B0E0EAE1F3E1FD
:102630000C94902A762E4A015901680101E010E0BD
:102640009E012F5F3F4F50E040E070E060E00E944D
:102650008812182F882399F1F40160817181828199
:1026600093810E94E322643671058105910500F192
:102670008701950150E040E070E060E0872D0E9406
:102680008812B82EB701C6010E94801811E0998106
:10269000981310E01B2139F00E94C822F4016083D6
:1026A000718382839383812F2196EDE00C94AC2A71
:1026B000B701C6010E94801899818913D9CFA7015B
:1026C000B601C5010E94E32AEECFA1E0B0E0EBE63F
:1026D000F3E10C94972A0091B2011091B3010A5FC3
:1026E0001F4FEE24E394F12C9E012F5F3F4F45EAEC
:1026F00052E063E082E00E941413182F882321F037
:10270000CE0101960E949A1B812F2196E6E00C943F
:10271000B32AA4E0B0E0EFE8F3E10C94952A6B0152
:102720000091B2011091B3010F5F1F4F84E0E82EBA
:10273000F12C9E012F5F3F4F41EA52E061E080E0C3
:102740000E941413882361F049815A816B817C8136
:1027500040939D0250939E0260939F027093A0024B
:1027600040919D0250919E0260919F027091A00243
:10277000F60140835183628373832496E8E00C94CE
:10278000B12AB0E0A0E0E7ECF3E10C94932A7C01DD
:102790005B016A010E94451201E010E0882311F0FC
:1027A0000AE010E0C1E0D0E0B501C701F6010995EB
:1027B000811104C021960C171D072CF4CDB7DEB78C
:1027C000EAE00C94AF2ACC9F9001CD9F300D300DE4
:1027D000112490E080E045E34A95F1F7000001966E
:1027E00082179307C1F7E0CF0F931F93CF93DF9327
:1027F000EC018B0149E853E10E94C113811106C02D
:1028000080E0DF91CF911F910F91089545E653E14C
:10281000B801CE010E94C113882391F346ED52E125
:10282000B801CE010E94C113ECCFA1E0B0E0EBE112
:10283000F4E10C94992A0091B2011091B301C801FE
:10284000019624E0FB01DC0101900D922A95E1F74D
:1028500064E070E00E948018F8018083CE01019648
:102860000E948F1B8981F801868361E070E0CE01B0
:1028700001960E948018F8018583678170858185A3
:1028800092850091990210919A0220919B023091B9
:102890009C02601771078207930751F060939902B9
:1028A00070939A0280939B0290939C020E94EB0F7C
:1028B0002196E4E00C94B52A0E94BE240E94560D95
:1028C0000E94CB2408950E94D0240E946B0D0E9488
:1028D000EA2408950E9455220E94A4240E943E0DDD
:1028E0000E945C140E9463140E944C0DFBCF8091E7
:1028F000B30280FF0DC06091300170E0660F771F5A
:102900006038710570F56115710569F1862F0895BC
:1029100081FF07C06091300184E0689FB0011124FD
:10292000EFCF6091300182FD0AC08091B20288230E
:10293000A9F020912F0160913001821710F088E0FA
:10294000ECCF869FC001112433E0880F991F3A9580
:10295000E1F7622F70E00E946A2AD2CF68E070E04F
:10296000D5CF8FE7089581E008958091B30280FF6D
:102970000CC060912C0170E0759567957595679511
:102980006115710549F1862F089581FF06C0609198
:102990002C0170E075956795F3CF60912C0182FD55
:1029A0000BC09091B1029923A1F060912B0180910D
:1029B0002C01961738F0682F70E06038710500F32D
:1029C0008FE70895899FC001112470E00E946A2A50
:1029D000F4CF61E070E0D7CF81E008958D3C31F411
:1029E0000E94771481958093B70208958E3C19F464
:1029F0000E947714F8CF8F3C31F40E9477148195B0
:102A00008093B6020895803D19F40E947714F8CFA0
:102A1000893D29F40E94B5148093B80208958A3D37
:102A200021F40E94B5148195F7CF8B3D31F40E94BB
:102A3000B51481958093B90208958C3D19F40E94D4
:102A4000B514F8CF9FE2980F983070F4815D990B20
:102A500021E030E001C0220F8A95EAF78091B502AB
:102A6000822B8093B50208958D3D31F48091B3029D
:102A700081608093B30208958E3D21F48091B3026A
:102A80008260F7CF8F3DB9F78091B3028460F1CFB8
:102A90004091B6028D3C59F48091B70287FF0DC07A
:102AA0001092B70241110BC01092B20208C08E3CC6
:102AB00081F48091B70218169CF3442381F0809131
:102AC000B8029091B902892B09F05AC01092B10254
:102AD00008958F3C49F447FFF0CF1092B6028091E1
:102AE000B7028111ECCFE0CF803D19F41416ACF39E
:102AF000E4CF9091B802893D29F41916F4F61092AA
:102B0000B802DBCF8A3D19F497FFD7CFF8CF909169
:102B1000B9028B3D29F497FFD0CF1092B902CDCFE7
:102B20008C3D19F41916CCF3C8CF9FE2980F98305A
:102B300090F4815D990B21E030E0B90102C0660F8D
:102B4000771F8A95E2F7CB0180959091B502892392
:102B50008093B502B2CF8D3D31F48091B3028E7F68
:102B60008093B302AACF8E3D21F48091B3028D7F72
:102B7000F7CF8F3D09F0A1CF8091B3028B7FF0CFCB
:102B800008950E94BC229C019091B6028091B702E8
:102B9000982B21F03093B0022093AF029091B802AD
:102BA0008091B902982B21F03093AE022093AD02B0
:102BB00084EB92E00E94F320089586E0E4EBF2E0DB
:102BC000DF011D928A95E9F71092B2021092B102CC
:102BD0001092B3020895FC01828181110EC083819D
:102BE00081110BC08481811108C091E08581811120
:102BF00001C090E0892F8170089581E0FCCFA6E0AC
:102C0000B0E0E5E0F6E10C949A2A86E0E4EBF2E02D
:102C1000DE01119601900D928A95E1F71092B602AD
:102C20001092B7021092B8021092B9028B819C8167
:102C3000892B89F08091AF029091B0020E94D4223A
:102C4000AC019091B2029923C9F1809131018417AE
:102C5000150608F440C08D819E81892B91F08091EA
:102C6000AD029091AE020E94D422AC019091B102CB
:102C7000992309F471C080912D018417150608F479
:102C800079C0BE016F5F7F4F84EB92E00E940D22FE
:102C9000811105C084EB92E00E94EB1581110E9426
:102CA000C11586E0FE013196A4EBB2E001900D92D1
:102CB0008A95E1F72696E3E00C94B62A209132013A
:102CC0008AE0289F900111242417350720F69F5F82
:102CD0009093B20202C09F3FD1F71B81112359F09C
:102CE0000E9477149FEF11160CF491E0899F802DBC
:102CF00011248093B6021C81112359F00E9477148D
:102D00009FEF11160CF491E0899F802D1124809380
:102D1000B7023091B602332309F49DCF2091B70258
:102D2000222309F498CF45EB3403C00111249923E1
:102D300059F09093B60245EB2403900111243323FC
:102D400039F03093B70287CF81E08093B602F3CF9A
:102D500081E08093B7027FCF20912E018AE0289FE7
:102D6000900111242417350708F08BCF9F5F9093B3
:102D7000B10202C09F3FD1F71D81112359F00E947B
:102D8000B5149FEF11160CF491E0899F802D11244A
:102D90008093B8021E81112359F00E94B5149FEF51
:102DA00011160CF491E0899F802D11248093B902B3
:102DB0003091B802332309F464CF2091B902222361
:102DC00009F45FCF45EB3403C0011124992359F076
:102DD0009093B80245EB240390011124332339F07A
:102DE0003093B9024ECF81E08093B802F3CF81E0F7
:102DF0008093B90246CF82E290E00E94EC2A8332AF
:102E000089F483E290E00E94EC2A863059F484E24F
:102E100090E00E94EC2A91E0833109F090E0892F44
:102E20008170089580E0FCCFCF93C82F6FEF8111A0
:102E300063E282E290E00E94FA2A6FEFC11166E03D
:102E400083E290E00E94FA2A6FEFC11163E184E20D
:102E500090E00E94FA2ACF910895089585E290E0CB
:102E60000E94EC2A682F70E090E080E008950895B9
:102E7000CF93C62F0E9437176C2F85E290E00E94F7
:102E8000FA2ACF91089580E00E94141760E070E064
:102E9000CB010E9438170E94981C0E94A11D81E05E
:102EA0000E94141708950E942D170E942E170E9449
:102EB00037170E94FB16811102C00E944317089524
:102EC0000895CF93FB01C281CC2309F19C012250CC
:102ED00037472031310520F582500E94B11DC0E0F6
:102EE0008C2FCF91089581E00E94A80743E062E013
:102EF00081E00E942303F3CF81E00E94B40743E006
:102F000062E081E00E942303EBCF82E0F6CF8115DF
:102F1000F7E79F0789F381309747B9F3C1E0E0CF26
:102F20008115E7E79E07F9F281309747C9F682E0FD
:102F3000DBCF2FEFFC01208308950E94991708959D
:102F400080E00895EF92FF920F931F93CF93DF934A
:102F5000EC01062F0E94A017811110C0E881E150FA
:102F6000E531B8F4F0E0E45CF44D0C947E2A19826B
:102F70008BE08A83602FCE010E949823CDB7DEB705
:102F8000E6E00C94B32A89818230C1F028F48130C4
:102F900061F08FEF8883EECF833099F08430C9F7EA
:102FA0001A821B821C821D82E5CF0E94C8220E94C9
:102FB000842A6A837B838C839D83DCCF0E942E17B7
:102FC000F6CF7E0182E0E80EF11C10E0812F0E9416
:102FD0006110F70181937F011F5F1830B9F7CACFE5
:102FE0008981823031F08530A1F68A810E94601794
:102FF000C1CF6A817B818C819D810E94842A0E943D
:103000003817B8CF4B816A8189810E94F01B9827BD
:10301000892798279D838C83ADCF2C813D813227D2
:10302000232732274B816A8189810E94121CA2CFFB
:103030000E94981C9FCF602FCE010E949D179ACFAF
:103040000E94521D898396CF0E94541D982789277C
:1030500098279A8389838ECF6B8170E089819A81CA
:10306000AE014C5F5F4F9827892798270E94571D14
:1030700081CF6B8170E089819A81AE014C5F5F4F97
:103080009827892798270E947C1D74CF0E94A11D34
:1030900071CF0E94DE1BD6CF6B8170E089819A814F
:1030A000AE014C5F5F4F9827892798270E94F41C38
:1030B00061CF6B8170E089819A81AE014C5F5F4F77
:1030C0009827892798270E94181D54CF41E08B81AB
:1030D000811101C040E06A8189810E942E1C97CF36
:1030E0002C813D8132272327322741E08B818111BA
:1030F00001C040E06A8189810E94671C3BCF08952E
:10310000FC01680F791F8FEF91E36E177F0709F4B9
:1031100008952191822728E030E087FF06C0880FBC
:10312000892721503109C9F7F0CF880FFACFCF9303
:10313000DF93EC01FB018281882309F4D2C09E0158
:1031400030572332310508F0B2C00E94890C9093A9
:10315000F8028093F702FE01E150F047E232F105F8
:1031600020F4EF5AF44D0C947E2A8091F70281608E
:103170008093F70293C08091F80288608093F802F0
:103180008DC08091F7028260F3CF8091F702846056
:10319000EFCF8091F7028860EBCF8091F8028160D9
:1031A000EDCF8091F8028260E9CF8091F7028061D3
:1031B000DFCF8091F7028062DBCF8091F7028064DD
:1031C000D7CF0E942D078091F7028068D1CF8091E0
:1031D000F7028C60CDCF8091F8028360CFCF8091D1
:1031E000F7028E7FC5CF8091F802877FC7CF80918D
:1031F000F7028D7FBDCF8091F7028B7FB9CF809191
:10320000F702877FB5CF8091F8028E7FB7CF80918C
:10321000F8028D7FB3CF8091F7028F7EA9CF809186
:10322000F7028F7DA5CF8091F7028F7BA1CF0E94FF
:103230002D078091F7028F779BCF8091F702837FD4
:1032400097CF8091F8028C7F99CF8091F70282FB13
:10325000992790F921E0922790FB82F990FB83F95E
:1032600087CF8091F802982F909591708E7F892B4F
:1032700090FB81F983CF9091F702892F8F7B96FF86
:10328000806476CF0E942D079091F702892F97FBDB
:1032900087F980586DCF81E00E94090D8091F70277
:1032A0009091F8020E948E0C0E942D0780E0DF9121
:1032B000CF91089580E0F0CF9091F702892F8F7E13
:1032C00094FF806155CF9091F702892F8E7F90FFF8
:1032D00081604ECF9091F802892F877F93FF88609D
:1032E0004DCF81E0E4CFB0E0A0E0E9E7F9E10C9454
:1032F000962AE82FF0E0E45BFD4FD490282F269526
:103300002695269530E0F901E451FD4F0491877030
:1033100010E0082E02C0159507950A94E2F7017097
:103320001127F901E452FD4FE490F12C082E02C060
:10333000F594E7940A94E2F791E0E922FF24F90179
:10334000E453FD4FC491D0E002C0D595C7958A954E
:10335000E2F7C170DD270115110519F081EE0E9419
:103360003904E114F10419F086EE0E9439048D2D20
:103370000E94D104E114F10419F086EE0E94860443
:103380000115110519F081EE0E948604CD2B19F06C
:103390008CE20E94D104CDB7DEB7E7E00C94B22AEC
:1033A000EF92FF920F931F93CF93DF93EC01162FB1
:1033B0000AE08881882309F454C0813009F04EC0A6
:1033C0008981813099F47E0122E0E20EF11C8A812C
:1033D0000E94D104E7012196812F815050F3EFE93B
:1033E000FFE03197F1F700C00000F7CF823041F4E1
:1033F0007E0182E0E80EF11C8A810E943904EACF46
:10340000833041F47E01E2E0EE0EF11C8A810E94DD
:103410008604E0CF843011F02196DDCF2A812296F8
:1034200090E080E0AE014F5F5F4F2053330B2A30B6
:10343000310548F0019778F2EFE9FFE03197F1F7B5
:1034400000C00000F7CF089FB001099F700D112444
:10345000C901860F971F2981EA01E4CF0E947319E1
:10346000BACFCDB7DEB7E6E00C94B32AAAE0B0E05D
:10347000ECE3FAE10C94992A182F062F662339F110
:103480000E94BC221E832DEF2F8321E028878160BC
:103490009A8789874E815F81688579858A850E94B0
:1034A000F4030023C9F00E94BC2219832DEF2A8364
:1034B0001B8281609D838C8349815A816B817C81D1
:1034C0008D810E94F4032A96E4E00C94B52A0E94B0
:1034D000BC221E832CEFD8CF0E94BC2219832CEF74
:1034E000E6CF8FE891E00197F1F700C00000089562
:1034F0000E940B1208950F931F93CF93DF93909127
:10350000020181E098279093BE02282F291B209367
:10351000BD02909102018093BF02909102018093BD
:10352000BC0280910201811106C086EF80933401B4
:1035300085EF8093330120913401E22FE295EF7003
:10354000F0E061A12F7081E090E0AC0101C0440F78
:103550002A95EAF7342F3095362331A322A1242B64
:1035600022A320913301E22FE295EF70F0E031A128
:103570002F7001C0880F2A95EAF7982F9095932312
:1035800091A392A1892B82A30E94711A6091BF021C
:1035900042EC52E0C4E3D1E003E311E0FA0126C0BB
:1035A0002991822F82958F7090E0DC0190968C910A
:1035B00090E02F7002C0959587952A95E2F781706B
:1035C000D8019D918D01292F22952F7030E0D901CE
:1035D00090962C9130E09F7002C0359527959A9572
:1035E000E2F790E020FD92E0892B81938E2F841BDF
:1035F0008617B0F2DF91CF911F910F910895B0E03F
:10360000A0E0E5E0FBE10C94952A10E000E084E006
:10361000C82ED12C8091BF02181730F0802FCDB763
:10362000DEB7E8E00C94B12AC12FD0E0FE01EC5CDB
:10363000FE4F8081E82FE295EF70F0E0E0A1F0E02E
:103640008F7002C0F595E7958A95E2F7E170DE018B
:10365000AD5CBE4F4C91A42FA295AF70B0E0909698
:103660008C9190E04F7002C0959587954A95E2F74E
:1036700080FD4DC080E08E2BDE01AE53BD4FEC913E
:103680009E2F9370981709F440C0EE0FEE0FE82BB1
:10369000EC93E090BE02E10EEF70F0E0EC54FE4FD0
:1036A000C054DD4F80819881890F8883F12C84304C
:1036B00084F0EE2DF0E0E654FD4F80818F5F808333
:1036C0000E94781AF82E882321F160E08E2D0E9446
:1036D000361A88818D3F84F4EE2DF0E0E654FD4FDC
:1036E0008081815080830E94781AF82E8823A1F06F
:1036F00061E08E2D0E94361A8881082E000C990BED
:10370000B6010E946A2A88830F291F5F83CF82E057
:10371000B2CFFF24F394DDCFFF24F394EDCF40919B
:10372000BF0250E06091BE0270E066547D4F0E947F
:10373000E32A0895B0E0A0E0E0EAFBE10C94952ACA
:103740006C01D0E080E09091BC02D91740F081116B
:103750000E94220DCDB7DEB7E8E00C94B12AF090BC
:10376000BD02FD0E0F2D10E006541D4FF601ED0FAA
:10377000F11DC081F8019081C91BEC2E1E1444F08C
:103780009C2FC7FD90E0C91BC1110DC0DF5FDBCFCF
:10379000EA94F80180818F5F808360E08F2D0E9422
:1037A000361A81E0EBCFCF5FF801808181508083B2
:1037B00061E08F2D0E94361A81E0E6CF84E0089503
:1037C00050E0440F551F9CE0699F400D511D11248E
:1037D00090E6899F400D511D1124CA0186960895D7
:1037E0000F931F93CF93DF938430C8F46830B8F4FD
:1037F0004630A8F40E94E01B8C010E94EC2AC82FDE
:10380000D0E0DC2FCC27C80101960E94EC2A9E0153
:10381000282BC901DF91CF911F910F91089590E05E
:1038200080E0F8CF0F931F93CF93DF93122F032FD6
:10383000843078F4683068F4463058F40E94E01B15
:10384000EC01602F0E94FA2A612FCE0101960E949E
:10385000FA2ADF91CF911F910F910895FF920F9354
:103860001F93CF93DF93F42E843070F5623060F5B0
:1038700028E0829F8001112434E0639FB00111246D
:10388000060F171F0A551E4F82E090E0442311F0E7
:1038900090E080E0800F911F0E94EC2AC82FD0E0BA
:1038A000DC2FCC2783E090E0FF2011F081E090E056
:1038B000800F911F0E94EC2A9E01282BC901CDB7D1
:1038C000DEB7E5E00C94B42A90E080E0F8CF0F93E7
:1038D0001F93CF93DF93142F022F843020F5623093
:1038E00010F598E0899FE001112484E0689FB00101
:1038F0001124C60FD71FCA55DE4F82E090E0442343
:1039000011F090E080E0632F8C0F9D1F0E94FA2A37
:1039100083E090E0112311F081E090E0602F8C0FA4
:103920009D1F0E94FA2ADF91CF911F910F91089558
:10393000FF920F931F93CF93DF9310E000E0D0E04E
:10394000C02F1AC00E947B0221E030E080171106D0
:1039500039F034F04F2D6D2F8C2F0E947D029C0189
:103960004F2D6D2F8C2F0E94121CF39486E0F812BD
:10397000E9CFDF5FD83011F0F12CE4CFD0E00E9426
:1039800099028017110631F12CF141E06D2F8C2F37
:103990000E949B029C0141E06D2F8C2F0E94671CAE
:1039A00040E06D2F8C2F0E949B029C0140E06D2F08
:1039B0008C2F0E94671CD13059F40F5F1F4F0430C9
:1039C000110509F0BCCFCDB7DEB7E5E00C94B42A01
:1039D000D1E0D5CF21E030E041E06D2F8C2F0E9467
:1039E000671C21E030E0E2CFEF92FF920F931F932C
:1039F000CF93DF93EC018A017C01E60EF71ECE0126
:103A00008696CE15DF0529F4CDB7DEB7E6E00C9437
:103A1000B32AC03821E0D20740F40E94EC2AF80112
:103A200080830F5F1F4F2196EACFF8011082F9CFF4
:103A3000B0E0A0E0EEE1FDE10C94952A7C016A0182
:103A40008C01060F171FEC01CE018696C017D10717
:103A500029F4CDB7DEB7E8E00C94B12AC03821E0F4
:103A6000D20740F4FE01EE19FF09EC0DFD1D608147
:103A70000E94FA2A2196E8CF843038F4683028F47E
:103A8000463018F40E94F01B089590E080E00895FD
:103A9000843028F4623018F40E942E1C089590E0BF
:103AA00080E0089580E108958AE392E00895EF921E
:103AB000FF920F931F93CF93DF93EC018A017C0158
:103AC000E60EF71ECE018A539E4FCE15DF0529F470
:103AD000CDB7DEB7E6E00C94B32ACA3322E0D207B2
:103AE00040F40E94EC2AF80180830F5F1F4F21965B
:103AF000E9CFF8011082F9CFB0E0A0E0E2E8FDE103
:103B00000C94952A7C016A018C01060F171FEC01A9
:103B1000CE018A539E4FC017D10729F4CDB7DEB727
:103B2000E8E00C94B12ACA3322E0D20740F4FE0147
:103B3000EE19FF09EC0DFD1D60810E94FA2A219605
:103B4000E7CFCF93DF93C6ECD1E060E0CE010E94D7
:103B5000FA2A2196C11584E0D807B9F7DF91CF91F1
:103B60000895A8E0B0E0E7EBFDE10C94932AF82E6D
:103B70008FE08F1508F46EC08FEF93E00E94EC2A5F
:103B8000811168C006EC11E0F11035C0FE013196DC
:103B90006F0188E011928A95E9F77801FFEFEF1A3B
:103BA000FF0AC8010E94EC2A89831A82882309F43B
:103BB00051C08130D1F4580182E0A80EB11CC70178
:103BC0000E94EC2A8A83882309F444C09FEF980F4F
:103BD0009330F0F4780193E0E90EF11CC5010E94E6
:103BE000EC2A8B838823B1F11C8260E0C6010E941D
:103BF000D0198701D2CF011594E0190759F1C801F6
:103C00000E94EC2A811101C0FA940F5F1F4FBCCFB4
:103C10007501843051F702E010E07501EFEFEE1A04
:103C2000FE0AC5010E94EC2AF601E00FF11F808315
:103C3000882381F08C3741F4E2E0F0E0EC0FFD1FC7
:103C4000E00FF11F1082D1CF0F5F1F4F57010730D8
:103C5000110519F72896EAE00C94AF2ACF93DF9369
:103C6000EB0186319C4711F50E94850B9A819923BF
:103C700099F08A7A91E009F490E09093C40281115E
:103C800009C089E20E945D0B0E94C60B80E0DF91B3
:103C9000CF91089585E3F6CF8091C402811104C0CD
:103CA00089E20E94650BF0CF85E3FBCF81E0EFCF87
:103CB0000F931F93CF93DF93C42FD22FFC018281E8
:103CC0008823C9F04093C7020E94BC229093C60289
:103CD0008093C50280E28C0F883040F4C77081E089
:103CE00001C0880FCA95EAF70E94DA04DF91CF91EC
:103CF0001F910F9108951091C702141332C0809143
:103D0000C5029091C6020E94D422883C910548F5D4
:103D1000C0E2CD0F1D17B9F080E2810F883040F46A
:103D2000177081E001C0880F1A95EAF70E94E1043C
:103D3000C83048F481E09D2F977001C0880F9A9594
:103D4000EAF70E94DA04802F0E94D104C83070F68E
:103D5000D77081E001C0880FDA95EAF70E94E1048C
:103D6000C5CF80E28C0F883008F6C77081E001C0B3
:103D7000880FCA95EAF7F2CF0F93DB0188519C4771
:103D800087309105A0F5FC01ED58F44D0C947E2A86
:103D900006E221EE41EE6AE17CE7CD010E94581E69
:103DA00080E00F91089507E225EE45EE6BE17CE798
:103DB000F4CF06E221EE40EE68E17CE7EECF07E2C9
:103DC00025EE44EE69E17CE7E8CF06E221EE42EE23
:103DD0006CE17CE7E2CF07E225EE46EE6DE17CE7A1
:103DE000DCCF08E221E045EE6EE17CE7D6CF12960B
:103DF0008C91882319F01092C702D3CF81E0D1CFE4
:103E00008EE1499B02C08150E1F7499BFECF0895A6
:103E1000599880E28A95F1F7599A0895FC013BE0A0
:103E20003A95F1F798E020E080E031E040E14A95F2
:103E3000F1F7880F499B02C08160232742E04A9531
:103E4000F1F7000040E14A95F1F7915079F790E1E0
:103E50009A95F1F799B132E03A95F1F7000040E117
:103E60004A95F1F79695917092272081920F908351
:103E70000895A1E0B0E0EFE3FFE10C94972A1982E6
:103E80008C017C01E60EF11C0E151F0541F481E04A
:103E90009981911180E02196E6E00C94B32A0E946A
:103EA000001FCE0101960E940E1FF80181938F0121
:103EB000EBCF519A599A08955198599AE99AE9E69F
:103EC000F0E08081837F808308956150770B91E0DB
:103ED00001C0990F6A95EAF720E031E0911108C01E
:103EE000222391F0599A80E28A95F1F75998089522
:103EF000492F482339F0599A232740E24A95F1F790
:103F00009695ECCF5998F9CF5998EDCFFF920F9332
:103F10001F93CF93DF93EC018C01060F111DC01787
:103F2000D10729F4CDB7DEB7E5E00C94B42AF990B7
:103F30000E94081F68E08F2D0E94651FF0CF1F921E
:103F40000F920FB60F9211240F931F932F933F934D
:103F50004F935F936F937F938F939F93AF93BF9391
:103F6000EF93FF93CF93DF930F92CDB7DEB7198214
:103F70000E94001FCE0101960E940E1F082F069579
:103F800006950695282F22952570902F9570290F5C
:103F9000922F937026952695920F98279770898176
:103FA000982B09F05CC0063008F059C080E18A9572
:103FB000F1F7599A519A82E08A95F1F700C0599821
:103FC00088E0089F80011124D801AD5FBE4F16968E
:103FD000ED91FC9117973097A9F06091B201709123
:103FE000B30114962D913C911597260F371F11960A
:103FF0008D919C911297680F791F13964C9113978E
:104000008C910995F801ED5FFE4F6381662351F0B5
:104010002091B2013091B30184819581820F931F69
:104020000E94861F0E94081F80E18A95F1F7599827
:104030005198599A80E18A95F1F7F801ED5FFE4FAA
:104040006081662351F02091B2013091B3018181EA
:104050009281820F931F0E94391F0E94001F0F90B0
:10406000DF91CF91FF91EF91BF91AF919F918F9190
:104070007F916F915F914F913F912F911F910F9180
:104080000F900FBE0F901F9018950F931F93CF9313
:10409000DF93EC0106970CF04CC0F894519A5998B4
:1040A00085E08A95F1F700009C2F969595708C2FEE
:1040B0008570980F892F83709695969523E0CC0F85
:1040C000DD1F2A95E1F7980F8E01092B0E94081F2A
:1040D00000C068E0802F0E94651F80E18A95F1F79B
:1040E0005198599A499B1EC087E090E049991CC09D
:1040F000FE01ED5FFE4F63816623F9F02091B2016E
:104100003091B30184819581820F931F0E94391FE2
:10411000811113C0519A599A7894DF91CF911F91D0
:104120000F91089500C0DECF019729F4519A599A52
:10413000789480E0F2CF00C0D9CF0E94001F80E2C7
:104140008A95F1F75998519A80E18A95F1F7CD5FF8
:10415000DE4F6881662351F02091B2013091B301A6
:1041600089819A81820F931F0E94861F0E94081FD7
:10417000789481E0D2CF9093D5018093D4010895B3
:104180009093CE028093CD0208950E940B1281116C
:1041900003C08091C8020895E091CD02F091CE0253
:1041A000309729F00190F081E02D0995089580E085
:1041B0000895E091CD02F091CE02309799F02091D0
:1041C0003D01222359F02091F70227FF07C0DC01AF
:1041D0002C9111962C93119726E02C930280F38159
:1041E000E02D09950895E091CD02F091CE0230972F
:1041F00039F022E0DC012C930480F581E02D099553
:104200000895A3E0B0E0E7E0F1E20C949B2A20914E
:10421000CB023091CC0228173907A1F09093CC0241
:104220008093CB02E091CD02F091CE02309751F015
:1042300023E029839B838A830680F781E02DCE01CA
:10424000019609952396E2E00C94B72AA3E0B0E02A
:10425000ECE2F1E20C949B2A2091C9023091CA024F
:1042600028173907A1F09093CA028093C902E09100
:10427000CD02F091CE02309751F024E029839B8348
:104280008A830680F781E02DCE0101960995239659
:10429000E2E00C94B72AFC01329680913D0188231C
:1042A00021F08091F7029EE187FF96E080E0915037
:1042B00008F4089521912223D1F38F5FF8CF66236C
:1042C00001F120913D012223F1F02091F70227FF17
:1042D0001AC0462F4695469546954E3190F4677024
:1042E00021E030E002C0220F331F6A95E2F7840F0D
:1042F000911DFC01828190E02823392381E0232B4A
:1043000069F480E00895FC01329608962191261701
:1043100021F0E817F907D1F7F4CF81E008959C0167
:10432000FC0132969FEF80E04191461751F09F3F8C
:1043300019F4411101C0982F8F5F8630A9F79F3F74
:1043400009F40895290F311D97FD3A95F90162830B
:104350000895FC01329608962191261303C0DF01CF
:1043600011971C92E817F907B9F70895E62FE6951B
:10437000E695E695EE3168F4E80FF92FF11D6770C8
:1043800021E030E001C0220F6A95EAF78281822B9A
:1043900082830895E62FE695E695E695EE3170F472
:1043A000E80FF92FF11D677021E030E001C0220F06
:1043B0006A95EAF720958281282322830895209127
:1043C0003D01222339F02091F70227FF03C00E940C
:1043D000B62108950E948F21089520913D01222346
:1043E00039F02091F70227FF03C00E94CA210895E7
:1043F0000E94A9210895FC01329680913D018823F5
:1044000051F08091F70287FF06C08EE1DF011D9217
:104410008A95E9F7089586E0F9CF46E050E00E94DA
:10442000D62A21E0892B09F420E0822F08950895EF
:104430000E9417220895811106C081E08093CF0267
:104440000E941822089582E0F9CF83E08093CF0282
:104450000E94182208950E941B22089581E08093F3
:10446000CF020E94182208950E942E2208950895D6
:1044700008950E9438220895089508950E943722D1
:104480000895CF930E943C220E948F110E943D22EA
:10449000C0E08C2F0E946110811105C0CF5FC83031
:1044A000C1F7CF91089581E0FCCF85B7806885BFC3
:1044B00085B7806885BF08951F921FB61F9211248B
:1044C0008F939F93AF93BF938091D002811113C0BC
:1044D00080910B0390910C03A0910D03B0910E03FA
:1044E0004196A11DB11D80930B0390930C03A093E3
:1044F0000D03B0930E03BF91AF919F918F911F90C9
:104500001FBE1F90189580911303843031F10E94D3
:10451000A8031092D00288E190E020E40FB6F8944E
:10452000A895809360000FBE2093600083B7817FC1
:10453000846083BF83B7816083BF7894889583B795
:104540008E7F83BF0FB6F894A89580916000886134
:1045500080936000109260000FBE08950E942D07A6
:104560000E94AD03089582E084BD93E095BD9AEF6B
:1045700097BD80936E0008952FB7F89480910B0338
:1045800090910C03A0910D03B0910E032FBF0895DD
:104590002FB7F89460910B0370910C0380910D0379
:1045A00090910E032FBF08959C014FB7F89480910E
:1045B0000B0390910C03A0910D03B0910E034FBF1C
:1045C000821B930B0895CF92DF92EF92FF922FB749
:1045D000F894C0900B03D0900C03E0900D03F09082
:1045E0000E032FBFA7019601261B370B480B590B53
:1045F000CA01B901FF90EF90DF90CF9008957894B1
:104600001F921FB61F9211248F939F93AF93BF9356
:1046100080910B0390910C03A0910D03B0910E03B8
:104620000196A11DB11D80930B0390930C03A093E1
:104630000D03B0930E03BF91AF919F918F911F9087
:104640001FBE1F90189587E797E790930108809306
:10465000000888E19AE00FB6F894A895809360006E
:104660000FBE90936000FFCF88E19AE00FB6F894F8
:10467000A895809360000FBE90936000FFCF80915B
:10468000F10208959B01BA01909113039430E9F46B
:104690008F708093E9009FEF8091E800915085FD35
:1046A00006C085ED8A95F1F700009111F5CF809154
:1046B000E80085FF0AC050E040E0C9010E9489255A
:1046C0008091E8008E778093E800089543E050E001
:1046D000BC0184E00E944223089546E050E0BC0102
:1046E00084E00E9442230895CF93DF93EC018091F0
:1046F0003D01811111C048E050E0BE0181E00E94FF
:10470000422380E2FE01A1EDB2E001900D928A9574
:10471000E1F7DF91CF9108958091F70287FF05C0FF
:1047200040E284E050E0BE01EACF48E081E0FACF09
:10473000603231F440E250E0BC0182E00E9442234A
:10474000089580911203811109C00E9468270E9478
:10475000C5278091E20084608093E2000895109262
:10476000120308950E942E22089560910F0381E0A4
:10477000611101C080E00E942522089590911303E9
:1047800081E0943009F080E060910F030E942B22B9
:10479000089542E061EC81E00E94E42642E261EC8F
:1047A00084E00E94E42642E261EC82E00E94E4267A
:1047B00042E260EC83E00E94E4269091130381E0E2
:1047C000943009F080E060910F030E941B2208954D
:1047D00080911503833009F463C030F48130E1F136
:1047E000823009F4A0C008958A3009F48CC08B305F
:1047F00009F471C0893009F052C0809114038132EC
:1048000009F04DC08091180390911903009719F099
:10481000029709F044C08091E800877F8093E80008
:104820008091E80082FF37C09091F3008091F20000
:10483000029731F48091F100813011F0863021F43B
:104840008091F1008093F1028091E8008B77809352
:10485000E8000E94182723C080911403813AF9F4DC
:104860008091E800877F8093E80080911803909101
:104870001903892B61F460E281ED92E070E00E94FF
:1048800027268091E8008B778093E800089560E008
:1048900090E080E0F3CF809113038111C1CF0895A0
:1048A00080911403813AD9F78091180390911903EC
:1048B000892BA9F78091E800877F8093E800809199
:1048C000E80080FFFCCF80913D018093F100809152
:1048D000E8008E77BCCF80911403813201F780917C
:1048E000180390911903892BD1F68091E800877FF6
:1048F0008093E8000E9418278091160380933D0161
:104900000E942D07089580911403813241F6809111
:10491000E800877F8093E8000E94182780911703A2
:104920008093F202089580911403813A09F0B7CF81
:104930008091E800877F8093E8008091E80080FF05
:10494000FCCF8091F202C1CF84B7877F84BF0FB6BE
:10495000F894A8958091600088618093600010921F
:1049600060000FBE80E890E00FB6F894809361007D
:10497000909361000FBE0E94342208950E94682720
:104980000E94C527E2EEF0E0808184608083789405
:104990000E94442A089585E391E00E94C020089572
:1049A00080911303853031F480911303853019F021
:1049B0000E94AE2208950E948322809111038823D1
:1049C00099F30E944122882379F30E9473250E9463
:1049D0002D07EACFA0E2B0E0E0EFF4E20C949B2ACE
:1049E00080911303843009F583E08093E90080917E
:1049F000E80082FF1AC08091E80090E085FF09C0BE
:104A000050E040E060E270E0CE0101960E94D825BF
:104A100091E08091E8008B778093E800992329F05A
:104A200060E2CE0101960E94A217A096E2E00C94EB
:104A3000B72A0E941C250895292F332723303105DA
:104A400021F168F42130310509F443C022303105E9
:104A500009F444C090E080E030E020E026C021323C
:104A6000310551F122323105A9F76330710590F714
:104A7000FB01EE0FFF1FE953FE4F208131816C5384
:104A80007E4FFB01808190E010C099278130910515
:104A900081F0009729F00297E9F6ECEFF2E002C00E
:104AA000E2E2F3E0849190E09F01FA0131832083F8
:104AB0000895E6E1F3E0F6CF6330710558F6660F2E
:104AC000771FFB01E353FE4F2081318189E090E0A5
:104AD000ECCF82E190E021E833E0E7CF8BE590E096
:104AE00026E233E0E2CF80E189BD82E189BD09B4ED
:104AF00000FEFDCF8091D8008F7D8093D8008091FB
:104B0000E00082608093E0008091E00081FDFCCFB6
:104B10000895AF92BF92CF92DF92FF920F931F93AF
:104B2000CF93DF936C01EB018A010E943727F82EA7
:104B3000811123C00115110539F0F801808191819F
:104B4000C81BD90BC80ED91EB12CA12C2097A9F0D7
:104B50008091E80085FD22C08091E8008E778093E7
:104B6000E80001151105A1F0F80180819181A80EDE
:104B7000B91EB182A08285E0F82E8F2DDF91CF91F2
:104B80001F910F91FF90DF90CF90BF90AF9008954D
:104B90000E9437278823D1F2F82EEFCFF6018191BA
:104BA0006F018093F1002197FFEFAF1ABF0ACECFBC
:104BB000AF92BF92CF92DF92FF920F931F93CF934A
:104BC000DF936C01EB018A010E943727F82E8111D7
:104BD00023C00115110539F0F80180819181C81BAE
:104BE000D90BC80ED91EB12CA12C2097A9F0809109
:104BF000E80085FD22C08091E8008B778093E80073
:104C000001151105A1F0F80180819181A80EB91E4E
:104C1000B182A08285E0F82E8F2DDF91CF911F9178
:104C20000F91FF90DF90CF90BF90AF9008950E94BA
:104C300037278823D1F2F82EEFCF8091F100F601CB
:104C400081936F012197FFEFAF1ABF0ACECFFC010E
:104C500080911A0390911B0386179707A0F06115A6
:104C6000710529F49091E8009E779093E80090E018
:104C70006115710551F4911108C08091E80082FF1F
:104C800034C080E00895BC01F2CF809113038823E3
:104C9000C1F18530C1F18091E80083FD30C0809181
:104CA000E80082FDEACF8091E80080FFE1CF8091AB
:104CB000F3002091F200382F6115710519F02830AA
:104CC000310558F091E02830310509F090E020914D
:104CD000E8002E772093E800CBCF81918093F100FC
:104CE000615071092F5F3F4FE7CF809113038823F5
:104CF00041F0853041F08091E80083FFBECF81E034
:104D0000089582E0089583E00895FC0180911A03DC
:104D100090911B0386179707A0F06115710529F480
:104D20008091E8008E778093E80090E0611571052E
:104D300051F4911108C08091E80082FF35C080E0F5
:104D40000895BC01F2CF809113038823C9F1853007
:104D5000C9F18091E80083FD31C08091E80082FDB7
:104D6000EACF8091E80080FFE1CF8091F3002091AD
:104D7000F200382F6115710519F02830310558F00F
:104D800091E02830310509F090E08091E8008E77BD
:104D90008093E800CBCF84918093F10031966150ED
:104DA00071092F5F3F4FE6CF80911303882341F0B5
:104DB000853041F08091E80083FFBDCF81E0089508
:104DC00082E0089583E00895982F973028F08F703F
:104DD0008093E90081E008959093E900242F762FD5
:104DE00050E0981731F07091EC002091ED00509157
:104DF000F00021FD02C09F5FE8CF3091EB003E7FC5
:104E00003093EB003091ED003D7F3093ED00309119
:104E1000EB0031603093EB007093EC002093ED00D9
:104E20005093F0002091EE0027FDE5CF80E008953B
:104E30008091140387FF13C08091E80082FF06C0B1
:104E40008091E8008B778093E80004C08091130381
:104E50008111F2CF0895809113038823D9F38091B3
:104E6000E80080FFF8CF8091E8008E77ECCF2091AA
:104E7000E4003091E50095E6A9012091EC00822F35
:104E8000817020FF06C08091E80080FF06C080E0AE
:104E900008952091E80022FD1AC080911303882311
:104EA00089F0853089F08091EB0085FD0FC020915D
:104EB000E4003091E50042175307F9F29150E1F612
:104EC00084E0089582E0089583E0089581E00895E4
:104ED0000E94D7270E94DF27E0EEF0E0808181600A
:104EE0008083E8EDF0E080818F77808319BCA7EDA7
:104EF000B0E08C918E7F8C9380818F7E8083109226
:104F0000120308950F931F93CF93DF930E94D72727
:104F10000E94DF27C8EDD0E088818F778883888161
:104F20008068888388818F7D888319BC10921303E1
:104F300010920F03109211031092100300EE10E074
:104F4000F80180818B7F808388818160888342E043
:104F500060E080E00E94E426E1EEF0E080818E7F58
:104F60008083E2EEF0E080818160808380818860D0
:104F70008083F80180818E7F80838881806188832F
:104F8000DF91CF911F910F910895E8EDF0E08081BE
:104F90008F7E8083E7EDF0E080818160808384E014
:104FA00082BF81E0809312030E9482270895E8ED7A
:104FB000F0E080818E7F80831092E200089510924D
:104FC000DA001092E10008951F920F920FB60F922F
:104FD00011242F933F934F935F936F937F938F93FE
:104FE0009F93AF93BF93EF93FF938091E10082FF74
:104FF0000BC08091E20082FF07C08091E1008B7FAF
:105000008093E1000E94432A8091DA0080FF19C05A
:105010008091D80080FF15C08091DA008E7F809348
:10502000DA008091D90080FF96C080E189BD82E1DD
:1050300089BD09B400FEFDCF81E0809313030E9477
:10504000A1238091E10080FF19C08091E20080FFE0
:1050500015C08091E2008E7F8093E2008091E20093
:1050600080618093E2008091D80080628093D800B4
:1050700019BC85E0809313030E94B5238091E10061
:1050800084FF2BC08091E20084FF27C080E189BDAE
:1050900082E189BD89B5982F917080FFFBCF809107
:1050A000D8008F7D8093D8008091E1008F7E80931F
:1050B000E1008091E2008F7E8093E2008091E20027
:1050C00081608093E20080910F03882309F449C036
:1050D00084E0809313030E94BE238091E10083FF4C
:1050E00029C08091E20083FF25C08091E100877F85
:1050F0008093E10082E08093130310920F0380916C
:10510000E1008E7F8093E1008091E2008E7F8093AA
:10511000E2008091E20080618093E20042E060E082
:1051200080E00E94E4268091F00088608093F00087
:105130000E94B223FF91EF91BF91AF919F918F9108
:105140007F916F915F914F913F912F910F900FBE83
:105150000F901F90189519BC109213030E94AF2353
:1051600070CF8091E30087FD93E090931303B3CF5A
:105170001F920F920FB60F9211242F933F934F93CC
:105180005F936F937F938F939F93AF93BF93CF93CF
:10519000DF93EF93FF93D091E900DF708091EC00F3
:1051A000C82FC17080FDC0E81092E9008091F00026
:1051B000877F8093F00078940E94FC281092E90089
:1051C0008091F00088608093F000CD2BCF70C09369
:1051D000E900FF91EF91DF91CF91BF91AF919F9146
:1051E0008F917F916F915F914F913F912F910F9090
:1051F0000FBE0F901F901895AAE2B0E0E2E0F9E22E
:105200000C949A2A84E193E02091F100FC0121930F
:10521000CF01F3E08C319F07B9F70E94E82380911A
:10522000E80083FF1EC180911403909115039A300A
:1052300008F017C1E92FF0E0E658F44D0C947E2AEF
:10524000803899F0823809F00CC1809118038F7072
:10525000873008F006C18093E9008091EB0085FB60
:10526000882780F91092E90006C080911003909180
:105270001103911182609091E800977F9093E8006C
:105280008093F1001092F1008091E8008E77E5C0E4
:10529000882309F4D3C0823009F0E3C0809116035B
:1052A0008111D6C0809118038F702FEF280F263000
:1052B00008F0D7C08093E9002091EB0020FFC8C020
:1052C000933031F48091EB0080628093EB00C0C09A
:1052D0009091EB0090619093EB0021E030E001C0F1
:1052E000220F8A95EAF72093EA001092EA00809153
:1052F000EB008860EACF8111B4C0109116031F77CC
:105300008091E3008078812B8093E3008091E80016
:10531000877F8093E8000E9418278091E80080FF33
:10532000FCCF8091E30080688093E30082E011115C
:1053300083E08093130395C08058823008F091C0B9
:1053400080911603909117038C3D23E09207A1F5FD
:1053500083E08A838AE289834FB7F894DE0113964B
:1053600020E03EE051E2E32FF0E050935700E4915B
:1053700020FF03C0E295EF703F5FEF708E2F90E04B
:10538000EA30C0F0C7968D939D932F5F243159F773
:105390004FBF8091E800877F8093E8006AE270E069
:1053A000CE0101960E9427268091E8008B7780939A
:1053B000E80057C0C096E7CF6091180370911903B9
:1053C000AE014F5F5F4F0E941925BC01892B09F484
:1053D00048C09091E800977F9093E80089819A8176
:1053E0000E948526E1CF8038E1F58091E800877F33
:1053F0008093E80080910F038093F10045CF8111E5
:1054000030C090911603923060F58091E800877F5C
:105410008093E80090930F030E94182780910F0358
:10542000882311F084E005C08091E30087FDFACF66
:1054300081E0809313030E94C92313C08091160357
:10544000813079F481E0933009F080E0809311039A
:105450001092E9008091E800877F8093E8000E9425
:1054600018278091E80083FF0AC08091E800877FB9
:105470008093E8008091EB0080628093EB00AA9615
:10548000E3E00C94B62A0895CF9380911303882308
:10549000A1F0C091E900CF709091EC00892F81704C
:1054A00090FD80E8C82B1092E9008091E80083FD10
:1054B0000E94FC28CF70C093E900CF9108950E940C
:1054C00068271092130308958091E300881F8827AE
:1054D000881F089597FB072E16F4009407D077FDD8
:1054E00009D00E94C22A07FC05D03EF49095819510
:1054F0009F4F0895709561957F4F0895EE0FFF1FA0
:105500000590F491E02D099469279627692778275B
:105510008727782708952F923F924F925F926F923C
:105520007F928F929F92AF92BF92CF92DF92EF9233
:10553000FF920F931F93CF93DF93CDB7DEB7CA1BB4
:10554000DB0B0FB6F894DEBF0FBECDBF09942A88DF
:10555000398848885F846E847D848C849B84AA8487
:10556000B984C884DF80EE80FD800C811B81AA8114
:10557000B981CE0FD11D0FB6F894DEBF0FBECDBFDF
:10558000ED010895AA1BBB1B51E107C0AA1FBB1F59
:10559000A617B70710F0A61BB70B881F991F5A95BF
:1055A000A9F780959095BC01CD010895FB01DC0120
:1055B00004C08D910190801921F441505040C8F7EA
:1055C000881B990B0895FB01DC0102C001900D922C
:1055D00041505040D8F70895F999FECF92BD81BD52
:1055E000F89A992780B50895A8E1B0E042E050E02C
:1055F0000C94202B262FF999FECF92BD81BDF89AED
:10560000019700B4021639F01FBA20BD0FB6F89406
:10561000FA9AF99A0FBE08950396272F0E94FB2A43
:105620000E94FA2A252F0E94FB2A242F0C94FB2A81
:105630000196272F0E94FB2A0C94FA2ADC01CB0149
:10564000FC01F999FECF06C0F2BDE1BDF89A319692
:1056500000B40D9241505040B8F70895F894FFCF30
:105660002305230554055405E60502068305830535
:1056700007066E067D067D06B717C317F0170218DA
:105680000D1818181B181B181B18C917C917201834
:1056900024182C183918461849184C185918661827
:1056A0007018EF186319F718C118C518FB18C91836
:1056B000FF180B19D5185C19D9180F19DD18131913
:1056C0003B19E11817194219E7181D192519CD18AA
:1056D0000319D1180719EB18211931194B195A1947
:1056E000BB18F3186A19D91EDF1EC81ED31EE51E8B
:1056F000EB1EF11E20294829312A4829312A7B290D
:085700009C29312AF329FF293D
:105708004D0201000000010000000000000004013B
:105718000000000000000105000000000000010674
:105728000000000407000000000000280850011EC7
:105738000A1401F6F53F2374236D23662301E20062
:10574800E900EA00B500B600B700CD008301CC003F
:105758008A019201940121022302240225022602D1
:1057680027022A02B300B4006F0070009F01CB012A
:10577800818283E200E900EA00B500B600B700CDF7
:10578800008301CC008A01920194012102230224A2
:10579800022502260227022A02B300B4006F007015
:1057A800009F01CB01818283946697C634353133DB
:1057B80032368E0200FF0100010000FFFF000001E9
:1057C8000001FF004022B66B049303B50338035170
:0457D8000371030056
:00000001FF
