:100000000C94CC060C94E9060C94CD290C94E906CA
:100010000C94E9060C94E9060C94E9060C94E906A4
:100020000C94E9060C94E9060C941B330C94EF3302
:100030000C946C2C0C94E9060C94E9060C94E906DB
:100040000C94E9060C94E9060C94E9060C94E90674
:100050000C94E9060C940F2D0C94E9060C94E90617
:100060000C94E9060C94E9060C94E9060C94E90654
:100070000C94E9060C94E9060C94E9060C94E90644
:100080000C94E9060C94E9060C94E9060C94E90634
:100090000C94E9060C94E9060C94E9060C94E90624
:1000A0000C94E9060C94E9060C94E906A900AA0050
:1000B000FA00F900C95CCA5CCB5CCC5CC55CC65C70
:1000C000C75CC85CC35CC45C50004F002B001400CC
:1000D0001A00080015001700E100040016000700D0
:1000E00009000A00E0001D001B00060019000500C1
:1000F0000000AE00E20002512C0001001C001800BC
:100100000C00120013002A000B000D000E000F005F
:100110003300340011001000360037003800E500CD
:10012000010028000151E700A800000029001E007E
:100130001F00200021002200010001000100010039
:1001400001000100010001000100010001000100A7
:1001500000000100E30002512C00010023002400F4
:100160002500260027002A002D002E002F02300235
:10017000310235002D022E022F00300031003502F1
:10018000010028000151E6000100000029001E02C4
:100190001F022002210222020100500051005200E1
:1001A0004F000100010001000100010001000100F9
:1001B00000000100E30002512C0001002302240290
:1001C0002502260227022A005000510052004F004B
:1001D0000100010001000100010001000100010017
:1001E000010028000151E6000100000001000100AB
:1001F00001000100010001000100010001000100F7
:10020000010001003A003B003C003D003E003F0081
:1002100000000100010001000100000001000100D8
:1002200001000100010001000100010001000100C6
:10023000010001004000410042004300440045002D
:100240000000010001000100010000000A0025304B
:100250003862003A200025303258000A722F63209D
:1002600030313233343536370A00290A002575001B
:100270002F002575005D28002564002000256400FE
:10028000200025640020002564007C0025303258C1
:10029000006D6F7573656B6579205B62746E7C7839
:1002A0002079207620685D287265702F61636C2943
:1002B0003A205B00FD377A585A000004E6D6B4466F
:1002C0000200210116000000742FE5A3E0059E0145
:1002D000A95D003D8889C65436C3174FE4E7E3B0F3
:1002E000AFDF8BBFACB228062522DACFE742372832
:1002F0004742BE3DF9EA7F81A206EB34EBC04F34A2
:100300004BEDC9C828DC3B13F89C169B0089059D62
:10031000056CFDF1BA42C74E2BD3179AD9382FD4AA
:1003200085BE4C23E289C2BE447FA2AF92AF31E8C2
:100330002C92B8342913951BAA904F528AF08A0741
:100340001983611D2248295A3A1A3DA31EC116A5D8
:10035000B2D65553B6381ECD35DBE535A1EB50ECA2
:100360000991798BBABEB599C6A73BD36CDDB8E4C9
:10037000D7EE186BFD8BBBBA9576231C5D9BE31FF4
:10038000E711E26B7057F792B191C49703FD8CF2BD
:10039000985CD1BBF65F79943C42DE67D130297B13
:1003A000DA422A6EDF64232DDEA4C0D0389F0DB55B
:1003B0004707CCF7D4703EF3110CE1F01375833787
:1003C000036E8AA6F8F53E5EEE1C643583A8C593DD
:1003D0007C55E46ED0546493B7A067133BBAE2C86F
:1003E000B678ED6FC8E99EEBB88EA8F3206C47ACE9
:1003F0009021B987E52EB3F03483FA4BB6EF9A7AA1
:10040000DEF9A925CD2119451A7DEA667C0BC025A8
:1004100085EA0D95106403087C069FA9479A743EEF
:10042000E919B10A0B5FCA3908A222805EEBC8C87D
:100430007BA04E42A025CA361295DF17A8565F3D15
:100440006FE4FCBAB74C3DB52498B155D1F977AA01
:10045000128183A3B2A6EBAF75D57C628BD812C58F
:100460007B2F21AA2925B35F4C6216052AC4A80355
:10047000FA0F5777DD5156F3BAA380000000000051
:10048000CFBF1ADB05F5D21A0001C5039F0B000090
:10049000193FA62CB1C467FB020000000004595AA2
:1004A00000000000000000002A2B280000000000CF
:1004B0000000000000000000000000290000000013
:1004C0002C1E3420212224342627252E362D373881
:1004D000271E1F202122232425263333362E37388A
:1004E0001F0405060708090A0B0C0D0E0F10111248
:1004F000131415161718191A1B1C1D2F3130232D14
:10050000350405060708090A0B0C0D0E0F10111211
:10051000131415161718191A1B1C1D2F3130354CC2
:1005200000000000000000000000000000000000CB
:1005300000000000000000000000000000000000BB
:10054000000000007E0F00D4FFFFFFC7000000780E
:10055000313A0964656C6179282A31306D73293A22
:100560002025750A323A09696E74657276616C28C5
:100570006D73293A2025750A333A096D61785F73E6
:10058000706565643A2025750A343A0974696D65A9
:100590005F746F5F6D61783A2025750A353A097787
:1005A0006865656C5F6D61785F73706565643A203E
:1005B00025750A363A09776865656C5F74696D65FB
:1005C0005F746F5F6D61783A2025750A00703A0993
:1005D0007072696E742076616C7565730A643A098D
:1005E0007365742064656661756C74730A75703A1E
:1005F000092B310A646E3A092D310A6C743A092BC1
:1006000031300A72743A092D31300A4553432F7143
:100610003A09717569740A0A7370656564203D2032
:1006200064656C7461202A206D61785F7370656504
:1006300064202A2028726570656174202F207469F7
:100640006D655F746F5F6D6178290A7768657265A3
:100650002064656C74613A20637572736F723D2516
:10066000642C20776865656C3D25640A53656520B8
:10067000687474703A2F2F656E2E77696B69706598
:100680006469612E6F72672F77696B692F4D6F7583
:1006900073655F6B6579730A004D3E20004D2575CB
:1006A0003A25733E20003F0A003D2025750A003F91
:1006B0000A0064656661756C74730A0025750A002A
:1006C0003F0A000A092D2056616C756573202D0ABA
:1006D00000710A000A092D204D6F7573656B6579ED
:1006E000202D0A003F00433E20004C25640A000AEA
:1006F000092D20537461747573202D0A686F73740B
:100700005F6B6579626F6172645F6C6564732829E1
:100710003A20253032580A6B6579626F6172645FE6
:1007200070726F746F636F6C3A20253032580A6BA9
:100730006579626F6172645F69646C653A20253027
:1007400032580A6B65796D61705F636F6E666967B9
:100750002E6E6B726F3A20253032580A74696D65BF
:10076000725F72656164333228293A202530386C13
:10077000580A002573000A092D20436F6E736F6CB1
:1007800065202D0A4553432F713A09717569740A22
:100790006D3A096D6F7573656B65790A000A092DED
:1007A000204D61676963202D0A443A0944656275EA
:1007B00067204D65737361676520546F67676C656B
:1007C0000A583A094D617472697820446562756708
:1007D000204D6F646520546F67676C65202D205332
:1007E000686F77206B6579707265737365732069C4
:1007F0006E206D617472697820677269640A4B3A81
:10080000094B6579626F6172642044656275672087
:10081000546F67676C65202D2053686F77206B6578
:10082000797072657373207265706F72740A4D3AD5
:10083000094465627567204D6F75736520546F6755
:10084000676C650A563A0956657273696F6E0A538A
:100850003A095374617475730A433A0941637469C0
:100860007661746520436F6E736F6C65204D6F64A5
:10087000650A46312D4631303A0953776974636809
:1008800020746F204C6179657220302D3920284604
:100890003130203D204C30290A302D393A09537728
:1008A0006974636820746F204C6179657220302D03
:1008B000390A47524156453A0953776974636820AB
:1008C000746F204C6179657220302028616C7465EA
:1008D000726E617465290A423A094A756D70207416
:1008E0006F20426F6F746C6F616465720A45534389
:1008F0003A094A756D7020746F20426F6F746C6F87
:10090000616465722028616C7465726E617465291A
:100910000A453A095072696E7420454550524F4D50
:100920002053657474696E67730A4241434B535098
:100930004143453A09436C65617220454550524F29
:100940004D0A4E3A094E4B524F20546F67676C6503
:100950000A006B65796D61705F636F6E6669672E03
:100960007261773A20253032580A2E737761705FB2
:10097000636F6E74726F6C5F636170736C6F636BC7
:100980003A2025750A2E636170736C6F636B5F7418
:100990006F5F636F6E74726F6C3A2025750A2E73E9
:1009A0007761705F6C63746C5F6C6775693A202562
:1009B000750A2E737761705F7263746C5F7267750E
:1009C000693A2025750A2E737761705F6C616C74CB
:1009D0005F6C6775693A2025750A2E737761705FC1
:1009E00072616C745F726775693A2025750A2E6EA4
:1009F0006F5F6775693A2025750A2E737761705F9E
:100A000067726176655F6573633A2025750A2E7398
:100A10007761705F6261636B736C6173685F626161
:100A2000636B73706163653A2025750A2E6E6B7275
:100A30006F3A2025750A2E737761705F6573636165
:100A400070655F636170736C6F636B3A2025750A24
:100A50000064656275675F636F6E6669672E7261B9
:100A6000773A20253032580A2E656E61626C653AFD
:100A70002025750A2E6D61747269783A2025750AF1
:100A80002E6B6579626F6172643A2025750A2E6D4E
:100A90006F7573653A2025750A006565636F6E662C
:100AA00069673A0A64656661756C745F6C61796543
:100AB000723A2025750A003F004E4B524F3A206F84
:100AC00066660A004E4B524F3A206F6E0A000A6D5E
:100AD0006F7573653A206F66660A000A6D6F7573ED
:100AE000653A206F6E0A000A6B6579626F61726405
:100AF0003A206F66660A000A6B6579626F617264FC
:100B00003A206F6E0A000A6D61747269783A206F3C
:100B100066660A000A6D61747269783A206F6E0A1F
:100B2000000A64656275673A206F66660A000A64A7
:100B3000656275673A206F6E0A000A0A4A756D7021
:100B4000696E6720746F20626F6F746C6F6164658B
:100B5000722E2E2E2000433E2000436C6561726988
:100B60006E6720454550524F4D0A005B735D005B38
:100B7000575D005B535D005B525D005B445D005B55
:100B8000435D001C037600690061006C003A00665A
:100B9000003600340063003200620033006300005E
:100BA00000180356004F0049004400200045007221
:100BB0000067006F002000530000000A0356004F3A
:100BC000004900440000000403090409027B0004FA
:100BD0000100A0FA0904000001030101000921112C
:100BE00001000122400007058103080001090401FA
:100BF0000002030000000921110100012222000768
:100C000005820320000107050303200001090402F7
:100C100000010300000009211101000122BC0007AE
:100C200005840320000109040300020300000009F9
:100C30002111010001222200070585032000010780
:100C4000050503200001120100020000000855F014
:100C500035350001010203010631FF0974A10109C4
:100C600075150026FF00952075088102097615008C
:100C700026FF00952075089102C00660FF0961A15A
:100C8000010962150026FF0095207508810209639D
:100C9000150026FF00952075089102C00501090284
:100CA000A10185020901A100050919012905150005
:100CB00025019505750181029501750381010501E5
:100CC000093009311581257F95027508810609389B
:100CD0001581257F950175088106050C0A380215D6
:100CE00081257F950175088106C0C005010980A195
:100CF00001850319012AB700150126B70095017572
:100D0000108100C0050C0901A101850419012AA068
:100D100002150126A002950175108100C005010988
:100D200006A1018506050719E029E71500250195AB
:100D300008750181020507190029EF1500250195A5
:100D4000F0750181020508190129059505750191C4
:100D500002950175039101C005010906A10105076E
:100D600019E029E715002501950875018102950113
:100D7000750881010507190029FF150026FF009558
:100D80000675088100050819012905950575019169
:100D900002950175039101C011241FBECFEFDAE067
:100DA000DEBFCDBF12E0A0E0B1E0EAECFDE602C09C
:100DB00005900D92AC3FB107D9F724E0ACEFB2E05B
:100DC00001C01D92A735B207E1F70E94B11A0C9439
:100DD00080360C940000FF93EF93E091FC02F091B9
:100DE000FD02309709F00995EF91FF910895FC01FC
:100DF0008591803011F0EFDFFBCF0895FF27E0E20F
:100E000030E247FF0CC0419597FF09C0EDE26095C5
:100E1000709580959095611D711D811D911D27FF15
:100E200002C0219530E350E2AA27660F771F881F82
:100E3000991FAA1FA41710F0A41B63955A95A9F730
:100E4000AA3008F0A95FA05DAF93F3956115710515
:100E50008105910541F7ED3211F4EF93F395F21707
:100E600018F43F93F395FBCF8F91B5DFFA95E1F737
:100E70000895E991F9918591803021F0853219F03A
:100E8000AADFF9CF089520E0E89455915532C1F3D7
:100E9000503311F4689455915A3348F4505390F3F9
:100EA000220F022E220F220F200D250FF4CF0EF459
:100EB000219589919991533619F3533729F1533577
:100EC00059F1BC0188279927E8945C3621F489916F
:100ED000999168945591543639F446EF7EF077FF36
:100EE0000DC08FEF9FEF0AC055374AE039F05835F3
:100EF00040E121F0523642E009F00895FF93EF936C
:100F00007DDFEF91FF91B7CFFF93EF93FC018191CC
:100F10008030B9F360DFFBCFFF93EF9368DFF1CF51
:100F2000DF93CF93CDB7DEB72596A3DFCF91DF91C7
:100F3000089523E041E062E00E945908089584E0AA
:100F4000089584E008959C013A9521153F4150F59C
:100F5000FC01EE27F170BC0166277270AC014427DA
:100F600054709C012227387094FF0EC080E1EF2B53
:100F700009F480E0672B09F08062452B09F080645A
:100F8000232B89F08068089581E0EF2B09F480E03D
:100F9000672B09F08260452B09F08460232B19F040
:100FA0008860089580E00895CF93DF93EB010E945D
:100FB000A307FE010995DF91CF910895CF93DF93A9
:100FC000EC01805E9109089720F063EB7CE02097AC
:100FD00011F46BE37AE0CE010E94D4078C2F0E94BB
:100FE0009709DF91CF910895CF93DF93EC010E9491
:100FF000E809CE01805E9109089720F06AEB7CE059
:10100000209711F462E47AE0CE010E94D407DF91C8
:10101000CF91089581E0089581E008950E940C0821
:10102000089508950E9411080895A5E0B0E0EBE14D
:10103000F8E00C94DC3549835A83309103038981AD
:101040009A81311119C0662399F0222389F00E94F8
:101050001B0E182F682F89819A810E94E20D6981E9
:101060007A81812F0E9462222596E3E00C94F83564
:101070000E94FE0D182FF3CF0E941B0E69817A810A
:10108000F1CFFC01262F40815181628173818481DF
:101090000E941508089581E00895CF93DF93EC0135
:1010A00060E00E944108BE010E941208DF91CF91CA
:1010B0000895E1E0F0E0DF0102C0AA0FBB1F6A95CE
:1010C000E2F7BD01DF0102C0AA0FBB1F4A95E2F79C
:1010D0006A2B01C0EE0F2A95EAF7962F98239613F4
:1010E00002C08E2B0895E0958E230895242F462F5D
:1010F000682F809119030E9459080E94420D08959B
:101100000E94621608950E946616089508950E942E
:10111000D70C0E9486082FEF84E39CE0215080408A
:101120009040E1F700C0000008950E9487080E94E7
:10113000332D08950E9487080E94442D08950F932F
:101140001F93CF93DF93EC018B010E94411E81110D
:1011500006C080E0DF91CF911F910F910895B801F3
:10116000CE010E94D5208823A1F3B801CE010E94B0
:101170000E08882371F3F8018281882361F0CA3553
:10118000FDE5DF0701F158F4C115ECE5DE0791F04C
:10119000CE3DDC4591F0C8010E940A08DBCFCC357A
:1011A0008DE5D80769F090F0C73ADD45A1F70E94B8
:1011B0009A08CFCF0E949508CCCF0E942813F7CF72
:1011C0000E946212E8CF0E946C12E5CF0E9470125A
:1011D000E2CFCF93DF93EC0161E00E944108BE01B2
:1011E0000E949F08DF91CF9108950E94492C0E9490
:1011F0002A0908950E942E090E944E2C0895829576
:1012000090E09C01220F331F220F331F2C7C9595F9
:101210008795959587958373282B30E0C901880FB2
:10122000991F8A7A359527952575822B08950895FB
:101230000E941709089581E008950E941B090895EE
:101240000895CF93C82F0E9418098C2F0E941D0962
:10125000CF91089580E00E94210908950E94F32A09
:101260000E9421090895CF930E94F32AC82F8091EC
:10127000FE028C1779F0C093FE020E94D82C609376
:10128000FF027093000380930103909302038C2F5D
:101290000E942109CF910895ABE0B0E0E2E5F9E0CA
:1012A0000C94DD354F83588769877A878B87611166
:1012B0000E9481111E821D8285E0FE013796DE01AB
:1012C000119601900D928A95E1F78091310482FF89
:1012D0000CC00E944411882319F082E00E94311250
:1012E0000E942B1181110E94AF118C819D81892B4D
:1012F00061F449815A816B817C818D819E810E943C
:1013000082102B96E2E00C94F93589819A81892329
:101310008F3F79F3CE0101960E944B088111E9CFEE
:10132000F0CFFC01808191810E94480E0895CF93F7
:10133000C82F8823E1F08CEF8C0F813AD0F48C2FEA
:101340000E94DA28811113C06C2F809100019091C6
:1013500001010E946F2B882329F08C2F0E94191104
:101360000E94BD118C2F0E9411110E94BD11CF91BE
:10137000089580E28C0F883048F4C77081E001C086
:10138000880FCA95EAF70E946411EFCFEBE5EC0FE6
:10139000E33040F4F0E0E658FE4F808190E00E9498
:1013A0002F2BE5CFE8E5EC0FE73150F4F0E0EE0F3E
:1013B000FF1FE45BFE4F808191810E94452BD7CFB8
:1013C000C03FA8F28C2F0E94351B0E94201CCFCF5B
:1013D000882379F19CEF980F913A28F40E94191113
:1013E0000E94BD11089590E2980F983050F48770D4
:1013F00091E001C0990F8A95EAF7892F0E946A113E
:10140000EFCF9BE5980F933028F490E080E00E94A6
:101410002F2B089598E5980F973128F490E080E0FD
:101420000E94452B0895803F20F00E949D1B0E9442
:10143000201C08951F93CF93DF93182FEB010E9478
:101440009709209739F4812F0E94E809DF91CF9105
:101450001F9108958FE99FE00197F1F700C0000008
:101460002197EFCF70E060E0893311F460E570E020
:101470000E941A0A0895882321F00E9464110E9494
:10148000BD110895882321F00E946A110E94BD11A8
:101490000895B0E0A0E0EFE4FAE00C94D6356C01DA
:1014A000D62FC72FFC010281F580F2949FE0F9222C
:1014B0000E945A11E82E8823B9F0E02E0023A1F0F3
:1014C0008C2F807F803421F080E28D0F8830D0F027
:1014D0008091310482FF16C082E00E9431120E9486
:1014E0005A1191E0E82EE926BC2EB2948FE0B82282
:1014F000FBE0FB1508F468C0EB2DF0E0EE57F94C6B
:101500000C94C035E12CF0CF1C2F1F70C07F11F060
:101510001295107F002399F0112359F080E28D0F6E
:10152000883010F0D11107C0812F0E9464110E94F1
:10153000BD118D2F41C0812F0E947411F8CF8D2FC6
:101540000E94E809112309F43FC080E28D0F883022
:1015500010F0D11104C0812F0E946A1103C0812FA5
:101560000E947A110E94BD112FC01C2F1F70C07FD6
:10157000C03211F01295107FDD2381F0D13009F4D3
:1015800082C0002309F48BC0FF2009F45BC0F60180
:10159000858180FFCECF8F70858354C080913104C8
:1015A00082FD33C0002359F0112329F0812F0E94BE
:1015B00064110E94BD1180E00E94970905C080E07F
:1015C0000E94E8091111C7CFEB2DE850FF0B3497AB
:1015D00020F40E94F32A0E942109EE2089F00E9443
:1015E000401180FD0DC0F60112820E943A110E9446
:1015F000560DC6010E94890C0E943A110E94620D8C
:10160000CDB7DEB7E9E00C94F2350023E9F0F11034
:1016100006C00E948411812B0E943B0AD5CF21E095
:10162000F21206C00E948411812B0E949811CCCF27
:1016300035E0F312EECF0E94AF110E942811812BEA
:101640000E948B11812FE8CFF11003C00E94AF11CF
:1016500011C081E0F81212C00E946111812309F4C7
:10166000B3CF0E94AF110E942811912F909589232A
:101670000E948B11812F0E94420AA6CF95E0F91695
:1016800009F4A2CFE3CF002329F0E5E0EF1508F439
:101690009BCFD8CFF4E0FF1508F496CFEBCFFF2017
:1016A00049F3D93349F4FFEF27EE33E0F1502040FE
:1016B0003040E1F700C000008D2F0E94E80984CF80
:1016C0008C2F86958695837069F0813009F07CCFE8
:1016D0008D2F9C2F9370011102C090E080E00E943A
:1016E000452B72CF8D2F9C2F9370011102C090E07B
:1016F00080E00E942F2B68CF8D2F002329F00E94BD
:10170000351B0E94201C60CF0E949D1BFACF8C2F9E
:10171000837079F5011158CF4D2F4295469547704A
:10172000440F440F8D2F8F70042E01C0880F0A9430
:10173000EAF72D2F2071D4FF07C02FE030E001C061
:10174000220F4A95EAF72095C695C695C370822B5D
:10175000C23049F058F4C13019F00E94330D34CF33
:101760000E942D0D31CF0E94390D2ECF0E942A0DDF
:101770002BCF8695002311F08C2F8170882309F4DC
:1017800023CF4D2F429546954770440F440F8D2F20
:101790008F70042E01C0880F0A94EAF72D2F207154
:1017A000D4FF07C02FE030E001C0220F4A95EAF7CE
:1017B0002095C695C695C370822BC23049F058F467
:1017C000C13019F00E94810DFFCE0E947B0DFCCE2E
:1017D0000E94870DF9CE0E94420DF6CECF700023F5
:1017E00029F08C2F0E94560D8D2F16CF8D2F0E9421
:1017F000420A8C2F0E94620DE7CED23F51F160F475
:10180000D03FB9F0D13F81F0002309F45AC0F11064
:1018100090CE8C2F8F7121C0D33F11F1D43FA1F70F
:101820008091310482FD26C08C2F8F71002311F32B
:1018300014C0002349F084E08F1508F4C5CE8C2F26
:101840008F710E946F0DC0CE95E09F1508F4BCCE3D
:10185000F6CF8C2F8F710111CDCF0E94560DB4CED3
:10186000002329F08C2F8F710E944D0DADCE0E9468
:10187000490DAACE0023C1F00E944011843041F4EA
:101880000E9427128C2F8F710E94620DE12C9CCE3A
:10189000E4E0EF15D8F3CF718C2F0E94560D63E072
:1018A0008C2F0E940912F2CFF4E0FF1530F40E9451
:1018B000271264E08C2F8F71F4CF81E00E943112E7
:1018C000E5CFFF2059F0D93309F0F6CE2FEF37EEF0
:1018D00083E0215030408040E1F7ECCE8C2F8F71B7
:1018E00089CF0F931F93CF93DF93EC0168817981A8
:1018F0008A810E94530E8C010E948D0D0E94290D39
:10190000B801CE010E94490ADF91CF911F910F913A
:101910000895CF93DF93EC018B819C81892B29F073
:101920008881998189238F3F51F4DF91CF91089568
:10193000CE010E94710CCE010E944D08F6CFCE015F
:101940000E94E9088111F4CF0E945A11882369F39B
:101950008A81882351F38091310482FFE6CF82E0AF
:101960000E943112E2CF882321F00E9474110E945C
:10197000BD110895882321F00E947A110E94BD11A3
:10198000089590E080E00E942F2B90E080E00E947C
:10199000452B0E9481110E94BD110E94BE1C0E9415
:1019A000201C08950E9421110E94C10C08950E94DC
:1019B00071110E94D20C089592959F70963091F00B
:1019C00058F4925F9F70923058F4803F19F030F4D1
:1019D000883E30F481E008959A5FF4CF843FD1F3DC
:1019E00080E00895883EB0F3813FD1F7F3CFFC014A
:1019F00083819481892B29F08081918189238F3F74
:101A000011F480E00895808191810E94480E0E9427
:101A1000DC0C0895A5E0B0E0E0E1FDE00C94DD35DC
:101A20002596E2E00C94F935A6E0B0E0EAE1FDE0AD
:101A30000C94DD352696E2E00C94F93508950E9469
:101A40001E0D08950E941F0D80931A030E94C10C61
:101A5000089508950E94220D089590911A03892BEC
:101A60000E94220D089590911A0389230E94220D4D
:101A7000089590911A0389270E94220D08950E94CB
:101A8000990708950E943F0D809319030E94C10C8D
:101A9000089580E00E94420D089591E001C0990FE1
:101AA0008A95EAF7892F0E94420D089521E030E0DF
:101AB00001C0220F8A95EAF780911903822B0E94B8
:101AC000420D089521E030E001C0220F8A95EAF727
:101AD00020958091190382230E94420D089521E0F0
:101AE00030E001C0220F8A95EAF78091190382271E
:101AF0000E94420D089590911903892B0E94420D76
:101B000008959091190389230E94420D08959091A0
:101B1000190389270E94420D08950895262F2770E2
:101B200091E001C0990F2A95EAF723E07695679531
:101B30002A95E1F7FB01EE0FFF1FE60FF71FE40FF9
:101B4000F51F50E040E0682F70E08191DF011197B0
:101B50009B01042E02C0369527950A94E2F7217066
:101B600021952827292328272C934F5F5F4F433047
:101B7000510559F70895A82FA77023E096958795EA
:101B80002A95E1F7FC01EE0FFF1FE80FF91FE60FA2
:101B9000F71F50E040E080E0219130E00A2E02C0C3
:101BA000369527950A94E2F721703327042E01C059
:101BB000220F0A94EAF7822B4F5F5F4F43305105A3
:101BC00059F70895282F862F903F79F0983070F4B8
:101BD000263058F4622F70E026E0929F600D711D50
:101BE000112447E053E00E948E0D08959C5F9230CF
:101BF000E0F7622F70E044E053E0F5CF903FC9F08A
:101C0000983080F48630A8F4282F30E067E073E045
:101C1000A901E6E09E9F400D511D1124CA010E94BA
:101C2000BB0D08959C5F923020F464E073E090E077
:101C3000F6CF80E00895CF92DF92FF920F931F932B
:101C4000CF93DF936C010091190380911A03082B45
:101C5000C7E0D0E010E0FC2EC8010C2E02C0959524
:101C600087950A94E2F780FD0CC02197A0F7F12C2C
:101C70008F2DDF91CF911F910F91FF90DF90CF902B
:101C80000895B6018C2F0E940215019771F3F0CFD1
:101C9000CF93DF93EC010E941B0EBE010E94021540
:101CA000DF91CF9108951F93CF93DF93EB01909134
:101CB0000303992339F0CB010E94480EDF91CF91A5
:101CC0001F910895882369F0CB010E941B0E182FE5
:101CD000682FCE010E94E20DBE01812F0E940215E5
:101CE000EDCFCB010E94FE0D182FF6CF1F93CF939F
:101CF000DF93C0911B0316E080911C038C1304C07A
:101D0000DF91CF911F910895D0E01C9FF0011D9F9E
:101D1000F00D1124E35EFC4F40815181628173819B
:101D2000848195810E94140D2196C770E5CF409162
:101D30004D0350914E0360914F0370915003809179
:101D40005103909152030E94140D08951F93CF9355
:101D5000DF9380915203807F09F049C080914F0347
:101D6000882309F444C080911B03C0911C03609137
:101D70004D0370914E03A0915003B0915103D62FA3
:101D8000D72316E0C81799F190E0109711F0DF3FC4
:101D900019F401968770F6CF189F9001199F300DA6
:101DA0001124F901E35EFC4F41814713F2CF4081DA
:101DB0004613EFCF42814111ECCF438154814A1B3E
:101DC0005B0B483C510528F7809152038F7080616E
:101DD00080935203F901EE5DFC4F80818F7080612A
:101DE00080838DE493E00E94890C0E94760EDF913F
:101DF000CF911F910895A1E1B0E0E1E0FFE00C94E4
:101E0000D5358C0185E0F801DE011D9601900D921B
:101E10008A95E1F7F801E2808DE4C82E83E0D82EA0
:101E200060915003709151036115710509F44EC121
:101E300090914D0320914E03892F82238F3F09F407
:101E400045C140815181A380B480F0904F03F501DA
:101E5000E61BF70BFF2009F4EAC080915203382FEC
:101E6000307FE83CF10508F0A3C031116DC0FE2CB5
:101E7000251316C0941314C0E11012C08F70806136
:101E8000809352030E94970EC6010E94890C809194
:101E90005203F80185838F2D6196EAE00C94F135A9
:101EA000A114B10429F0842F85238F3F09F027C1A5
:101EB00080E0F82FF170DF2E80FF3CC080911B0383
:101EC00020911C0336E0821315C04D875E878D85F7
:101ED0009E850E94480E292F22952F702230F0F007
:101EE000243018F59F70F1F0F8019581907FD1F4BE
:101EF000D12C1EC090E0389FF001399FF00D1124C5
:101F0000E35EFC4F6181651306C06081641303C00A
:101F10006281E6120FC001968770D5CF9F7011F0D5
:101F2000882331F3805E883018F3C8010E94890C41
:101F3000FD2CB1CFEE2009F4AECF80915203816029
:101F400080935203F12CA7CF251306C0941304C02D
:101F5000F801EE2009F487C0C8010E94F70C88231D
:101F600019F1EE2009F180915203803270F0209136
:101F70004D0330914E0338872F831986BB86AA867E
:101F80008C87CE0107960E94890C86E0F801ADE4AB
:101F9000B3E001900D928A95E1F70E94A60E0E948F
:101FA000970EFF24F39477CFC8010E94890CF9CFD4
:101FB000311113C07A2DB98AA88A6E2D89890E94A1
:101FC0000A0D8DE493E00E94890C86E0F6011192DF
:101FD0008A95E9F70E94970EB5CF25130FC0941389
:101FE0000DC0E1100BC0F8018583C8010E94890C67
:101FF00086E0F60111928A95E9F74DCFC8010E945B
:10200000F70C882389F2EE2079F280915203803216
:1020100008F4BBCF20914D0330914E033A832983BE
:102020001B82BD82AC828E83CE010196ACCFE83C90
:10203000F10508F03EC0FE2CEE2009F4B5CF2513C3
:102040002AC0941328C08091520380FD1BC0982F92
:10205000907FC1F0F8018583903F31F0982F907FF9
:10206000905F8F70892B8583C8010E94890C86E060
:10207000F801ADE4B3E001900D928A95E1F70E947A
:10208000970E09CF86E0F801ADE4B3E001900D9220
:102090008A95E1F700CFC8010E94F70C811175CF36
:1020A00080915203816080935203C8010E94890C81
:1020B000F2CE7A2DB98AA88A6E2D89890E940A0DDE
:1020C00086E0F60111928A95E9F7D9CFEE2009F45E
:1020D0006BCFC8010E94F70CF82E882309F464CF57
:1020E00086E0F801ADE4B3E001900D928A95E1F746
:1020F0008DE493E00E9491090E94A60EC0CF81E07A
:102100008E25D7CEACE0B0E0E8E8F0E10C94DC3509
:102110004F83588769877A878B879C87CE0107967C
:102120000E94FB0E882369F08A859B85892B39F0F4
:102130004F815885842F85238F3F09F06BC016E0AF
:102140005FC086E0FE013796DE01119601900D9288
:102150008A95E1F78A859B85892B89F38F819885FC
:1021600089238F3F61F320911C0330E0C901019660
:102170008770992740911B034817190671F40E9434
:10218000D70C10921C0310921B0386E0EDE4F3E0E1
:10219000DF011D928A95E9F7D2CF96E0929FD00198
:1021A000939FB00D1124A35EBC4FFE0131960190A8
:1021B0000D929A95E1F780931C030E94760EBFCF93
:1021C000819FC0011124835E9C4F0E94FB0E8823D7
:1021D000E9F0E0911B031E9FF0011124E35EFC4F28
:1021E0004081518162817381848195810E94140DA7
:1021F00080911B0390E001968770992780931B03C1
:1022000080911B0390911C038913DACF2C96E3E095
:102210000C94F83569857A858B859C850E94140D10
:102220008ECF682F80910001909101010E94EF2BC9
:102230000895682F80910001909101010E94FD2B6B
:10224000089580910001909101010E940B2C089546
:102250008091780308950E94CC2C209176033091D0
:102260007703821B930B9C0181E02838334108F4EB
:1022700080E00895809175038595859585950895ED
:1022800080917503877008950E94CC2C2091730370
:1022900030917403821B930B8838934148F08091EE
:1022A000750382FB882780F991E089278170089562
:1022B00080E0FCCF90917503977081E009F480E095
:1022C000089580919B03089590919B03892B80939F
:1022D0009B030895809590919B03982390939B0373
:1022E000089510929B03089590919A03892B8093EF
:1022F0009A030895809590919A03982390939A0356
:10230000089510929A03089580917903089508958D
:102310000E948711089590917803981721F0809377
:1023200078030E948811089508950E9494110895D9
:10233000CF93C82F8091310482FF0FC08091790321
:102340008C1759F00E94CC2C9093770380937603DE
:10235000C09379038C2F0E949511CF91089580919D
:102360007903882349F01092790310927703109231
:10237000760380E00E9495110895CF93DF93E0915A
:102380000001F091010180919B038083E0910001A5
:10239000F0910101808190919A03892B8083809133
:1023A00079038823B9F00E942B1181110E94AF118B
:1023B000E0910001F0910101808190917903892BD6
:1023C000808380910001909101010E945B2B81111B
:1023D0000E94AF11C0910001D091010140E250E094
:1023E00063E573E0CE010E942136892B59F080E22B
:1023F000FE01A3E5B3E001900D928A95E1F7CE01CD
:102400000E94072BDF91CF91089508950E94051235
:1024100008959091310492FF17C098E0899F900130
:102420001124622B609375030E94560D0E94CC2CE0
:1024300090937403809373038091750385958595BC
:1024400085950E94061208950E94560D08951092D7
:102450007503109274031092730380E00E940612B9
:102460000895909175038095892380937503282F93
:10247000277091F4282F082E000C330B92171306A7
:1024800059F09091310492FF07C085958595859507
:102490000E94620D0E94271208959091310492FBD0
:1024A000222720F9281769F080FB92F990933104D4
:1024B00080913004909131040E949F1282E00E942A
:1024C000311208958091310482FB882780F991E0D0
:1024D00089270E944D12089581E00E944D120895AF
:1024E00080E00E944D1208956FEF7FEF90E080E052
:1024F0000E946A36089590E080E00E944636883E49
:102500009E4F19F40E94DC1D089580E0089582E03A
:1025100090E00E943E36089583E090E00E943E36AF
:102520000895CF9384E090E00E943E36C82F82E267
:1025300090E00E943E36982F8C2FCF910895CF9334
:10254000C92F682F84E090E00E944C366C2F82E205
:1025500090E00E944C36CF910895AB01BC018FE012
:1025600090E00E945E360895AB01BC0183E190E0EB
:102570000E945E36089560E070E0CB010E94B412C4
:10258000089560E070E0CB010E94AD120E94BB1282
:10259000089568EE7EEF90E080E00E946A3660E089
:1025A00082E090E00E944C3660E083E090E00E9480
:1025B0004C3610921A0360E084E090E00E944C36A2
:1025C00064E082E290E00E944C3660E085E090E0BA
:1025D0000E944C3660E086E090E00E944C366FEF3F
:1025E00087E090E00E944C3640E050E0BA0188E07D
:1025F00090E00E945E3660E08DE090E00E944C36F4
:1026000040E050E0BA0188E190E00E945E3660E070
:1026100087E190E00E944C3640E050E0BA018CE146
:1026200090E00E945E3670E060E080E290E00E9400
:102630006A3640E050E0BA0188E190E00E945E36E0
:1026400080E00E94F51D0E94241E0E94C112089580
:102650000E94C91208950E94D82C6093AE03709313
:10266000AF038093B0039093B1036093AA03709378
:10267000AB038093AC039093AD0308950E94D82CD4
:102680006093AE037093AF038093B0039093B10354
:102690006093A6037093A7038093A8039093A90364
:1026A0000895089508950E945213089508950E9470
:1026B000561308958FE69FE20E94E92A0E94831F25
:1026C0000E9451130E94531308950E9452180895B6
:1026D000089508950E9468130E94691308950E9446
:1026E00046160E94200908950E94C32C0E94EC15F2
:1026F0000E94341E0E947B180E94B3170E946F1321
:102700000E949F230E94CC240E9485180E94571388
:102710000895AAE0B0E0EFE8F3E10C94D5350E940B
:10272000D6178EE9A82E83E0B82E750110E0F701C8
:1027300001917F01812F0E9469161F5F183009F4F3
:1027400040C00817A1F38091B20381FD0E946F166B
:102750000E946513C82E10E0812F0E946916082F71
:10276000F50181915F01081731F1D02ED826F12CA7
:10277000EE24E3948D2D8E21B1F0CC20A1F0FE82C9
:102780001F8391E0802F8E2109F490E098870E94AA
:10279000CC2C8160782F9A8789874E815F816885EC
:1027A0008A850E944C09F394EE0CF6E0FF12E2CF0A
:1027B000F501319700831F5F183071F60E942B13CB
:1027C00020C00813C0CF0E94CC2C8C0180919C03A8
:1027D00090919D0308171907A1F08FEF89838A83D1
:1027E0001B820E94CC2C8160782F9D838C83498131
:1027F0005A816B818D810E944C0910939D03009337
:102800009C030E9452180E94502581110E943E1381
:102810000E94E01C0E9433092A96EAE00C94F135EC
:10282000CF93DF930E940715EC01811521E59207F4
:1028300008F042C0811530E5930708F09FC0883E3C
:10284000910530F5803E910508F094C0883A9105D5
:1028500088F4853A910508F086C08130910509F425
:1028600089C0009709F486C0049708F083C0D0E0BF
:10287000C0E080C08F3B9105D0F7C85AD0E0CC0FA4
:10288000DD1FC358DE4F0990D881C02DD46472C0BB
:10289000811540E2940750F4C11581E0D80708F093
:1028A00069C0C03FD10518F3D06564C0811590445C
:1028B000F0F2DF70D06A5EC0811535E5930718F538
:1028C000811544E5940708F086C0C11583E5D80753
:1028D00008F06DC0C11522E5D20708F463C0CE012F
:1028E0008370992721E030E002C0220F331F8A95C0
:1028F000E2F7C695C69580E2C89FE0011124C22B7D
:10290000D32BDC6837C0811539E59307A8F481150E
:1029100048E5940708F064C0C11586E5D80708F0BB
:10292000A6CF8C2F0E94A915C82FD0E0DC2FCC2772
:10293000CC27DF71D0621EC081152AE5920708F40A
:1029400054C090568115904208F091CF8D2F8F7111
:102950000E94A91590E0982F882788279F719C01D5
:102960002C2BE901E7CFC55AD0E0C555DE4FC88111
:10297000D0E0D064CE01DF91CF910895282F269525
:102980002695237040E2249F900111248370C1E0BA
:10299000D0E002C0CC0FDD1F8A95E2F7C22BD32B0B
:1029A000DD68E8CFDC2FCC27C16FD06AE3CFCE0142
:1029B0008370992721E030E002C0220F331F8A95EF
:1029C000E2F7C695C69540E2C49FE0011124C22BF0
:1029D000D32BDA68CFCFD82FCC27C46FD06ACACF19
:1029E000D82FCC27C06FD06AC5CF8F700E94A91591
:1029F00034E0D695C7953A95E1F7CF709C2FEC015E
:102A0000D069B8CF0E9462220E94101408958238C3
:102A10009105B9F1B0F48133910509F47DC048F412
:102A20008932910509F46DC08A32910509F47BC0A1
:102A300008958533910509F45FC08933910509F143
:102A40000895833E9105D9F138F4803E910529F12E
:102A5000823E910579F10895863E9105D9F1873E30
:102A6000910509F43EC0843E910541F52091310461
:102A700021FF24C08091300484FD19C087EE90E0CE
:102A8000089520913004237009F05AC02091310438
:102A900023FF14C089E290E008952091300420FDC6
:102AA00038C03091310430FF09C024FF43C090E0AA
:102AB00080E008952091300422FDF7CF0895209101
:102AC000300422FD3AC03091310430FD39C024FF7A
:102AD000F5CFEDCF2091300423FFF0CF24FDE7CFD9
:102AE000CDCF2091300423FD2EC03091310431FF31
:102AF000EECF84EE90E008952091300425FFDECFE4
:102B0000C9CF2091300425FD21C02091310423FF3D
:102B1000D5CF89E390E0D2CF2091300426FFCECFED
:102B20008AE290E008952091300426FFC7CF81E328
:102B300090E0089583EE90E0089582EE90E008958D
:102B400080EE90E0089586EE90E0089585E390E0B1
:102B500008959091300492FF06C0282F28712830E4
:102B6000F9F4877F846093FF06C0282F28712831ED
:102B7000F1F4877E84612091310420FF06C0382F54
:102B800038713830D9F4877F816021FF06C0282F43
:102B900028712831D1F4877E816194FD877E089564
:102BA000282F24712430F9F68B7F8860DCCF282F02
:102BB0002471243101F78B7E8861DDCF382F31718C
:102BC000313019F78E7F8860E0CF282F21712131B5
:102BD00021F78E7E8861E1CF10922C0410922D0493
:102BE00010922E0410922F040895CF92DF92EF924C
:102BF000FF926B017C010E94521881110EC00E944D
:102C0000D82CC61AD70AE80AF90AC0922C04D09226
:102C10002D04E0922E04F0922F04FF90EF90DF90AD
:102C2000CF9008950F931F930E945218882329F084
:102C30000E94D82C1F910F9108950E94D82C0091CA
:102C40002C0410912D0420912E0430912F04600F3C
:102C5000711F821F931FEECF0E94741208950E946D
:102C6000D6178FE39CE90197F1F700C000000E949E
:102C7000D61780E00E94691680FF04C00E942C16BF
:102C80000E94332D08950E942F1608950E947B12F2
:102C9000811102C00E9428130E9487128093B20300
:102CA0000E94911290933104809330040E94431645
:102CB0000E948C120E942A0D809119030E943F0DE0
:102CC000089508950E946116089508950E9465165A
:102CD0000895E82FF0E0E55CFB4F80810895B0E0B7
:102CE000A0E0E5E7F6E10C94D7358BE592E00E9491
:102CF000F7068BE3E82E84E0F82ED0E0C0E096E5FE
:102D0000C92E92E0D92E0EE412E0DF93CF93DF922A
:102D1000CF920E94900783E592E00E94F706F701A8
:102D200081917F010E94FF081F928F931F930F9341
:102D30000E9490078CE492E00E94F70621968DB7DE
:102D40009EB708960FB6F8949EBF0FBE8DBFC830D1
:102D5000D105D9F6CDB7DEB7E8E00C94F33580EABB
:102D60008A95F1F7089500C008950E94AF1608955E
:102D700008950E94B8160895EF92FF921F93CF9383
:102D8000DF9300D000D0CDB7DEB70E945218182FC5
:102D900060914304882309F447C019821A821B8278
:102DA0001C82862F90E09E012F5F3F4F7901B90171
:102DB000855C9B4F0E9493188823E9F08091320430
:102DC00090E044E050E0B701855C9B4F0E942136C3
:102DD00021E02093B303892BC9F410E00E948308FB
:102DE000812F0F900F900F900F90DF91CF911F9137
:102DF000FF90EF9008958091B303882371F384E0EE
:102E0000F70111928A95E9F71092B303E091320429
:102E1000F0E0E55CFB4F89819A81AB81BC818083C6
:102E20009183A283B383DACF70E0655C7B4F80919E
:102E3000320490E0855C9B4F0E941A190E94B916DB
:102E4000CFCFF894E82FE295EF70F0E031A1282F72
:102E50002F7081E090E001C0880F2A95EAF7982F43
:102E60009095932391A392A1892B82A3789408959E
:102E7000CF93DF9381E30E94211783E30E94211700
:102E800082E30E94211786E30E942117CEEAD1E057
:102E900089918F3F11F00E94211781E0C43BD80730
:102EA000B9F7DF91CF910895B0E0A0E0EAE5F7E14E
:102EB0000C94D735EC01D62E062F10E0C8018C54A7
:102EC0009E4F7C01FC0180818F3F09F445C0F8943E
:102ED000E82FE295EF70F0E091A18F7021E030E0F3
:102EE00001C0220F8A95EAF7892F822B81A382A144
:102EF0002095282322A378940E94B316EEEAF1E0ED
:102F000044EB51E031E0C12C21912F3F51F1A22F30
:102F1000A295AF70B0E090968C9190E02F7002C0B7
:102F2000959587952A95E2F780FD1BC0832FC82AC7
:102F3000330F4E175F0741F7F70180818F3F11F084
:102F40000E94211761E0C11001C060E08D2D0E9438
:102F5000B516C00FD11FC882CDB7DEB7E8E00C941C
:102F6000F33580E0E4CF809102018091020194E08A
:102F7000811190E09093430484E0891B8093320494
:102F80000E94381788E0EBE3F4E0DF01982F1D92F0
:102F90009A95E9F7E3E3F4E0DF011D928A95E9F7FA
:102FA00084E00E9414180E9480080895A8E0B0E010
:102FB000ECEDF7E10C94DA358E010F5F1F4F88E0DE
:102FC000F80111928A95E9F7F12C6F2DC8010E9442
:102FD0005417F394F4E0FF12F8CF48E050E0B80142
:102FE00083E394E00E94213621E0009709F420E079
:102FF000892B41F088E0F801A3E3B4E001900D9241
:103000008A95E1F76091430470E0655C7B4F44E092
:1030100083E394E00E941518182F0E94BC16812BA0
:103020002896E5E00C94F6350895CF92DF92EF9262
:10303000FF920F931F93CF936C017B01042F2223E8
:1030400049F081E08093B6030E94CC2C9093B503A5
:103050008093B403C091B603C1110AC0C0E08C2FA5
:10306000CF911F910F91FF90EF90DF90CF90089537
:103070008091B4039091B5030E94E42C059770F3FE
:1030800010E0A801B601C7010E942136892B41F04A
:10309000A801B601C7010E942E361092B603DFCFF9
:1030A000C0E0FBCFCF93DF938091B903811117C0AC
:1030B000C8ECD0E00E949A3581110EC08FE39CE9E4
:1030C0000197F1F700C000002197A1F782E08093FB
:1030D000B9030E94953503C081E08093B90381E074
:1030E0009091B903913009F080E0DF91CF9108957C
:1030F0000E94521808950E947818809302010E943D
:10310000521881110E94C91808950E945218811105
:1031100002C00E94CC18089581E09091BA039A30C1
:1031200008F080E008950F931F93CF93DF93EC0195
:103130008B018091BA038A30B8F4B801CE010E94A5
:103140001719C82F811122C08091BA038F3FB9F49B
:103150000E94CC2C9093B8038093B7038C2FDF91FF
:10316000CF911F910F9108958091B7039091B8036B
:103170000E94E42C843F914000F7C0E0EFCF8F5FC6
:103180008093BA038A3020F7C1E0E8CF1092BA03E7
:10319000E5CF0E94872908950E948A290895B0E00A
:1031A000A0E0E5EDF8E10C94D8357901C82F880F3F
:1031B000DD0B41155105A9F0FE0193E0EE0FFF1F55
:1031C0009A95E1F7ED5FFE4F8181928185549C4F86
:1031D000208130E04217530708F49A01A9010E94A8
:1031E0002E36CE010E94732AD82E8823D1F00115E5
:1031F0001105B9F083E0CC0FDD1F8A95E1F7FE01E0
:10320000ED5FFE4F438150E00417150708F4A80155
:10321000CD5FDE4F6C817D8165547C4FC7010E947C
:103220002E368D2DCDB7DEB7E7E00C94F4350E9435
:103230003B1A08950E945C1A0895A4E0B0E0E3E20E
:10324000F9E10C94DB356091D6037091D70380913E
:10325000D8039091D9030E94F32C11E064367105D4
:103260008105910518F10E9412166E5F7F4F8F4FF6
:103270009F4F69837A838B839C8310E000E030E06A
:1032800020E044E050E0BE016F5F7F4F84E00E9489
:10329000CF18182F882351F00E94D82C6093D603A2
:1032A0007093D7038093D8039093D903812F2496EA
:1032B000E4E00C94F735A1E0B0E0E1E6F9E10C942C
:1032C000D235762E4A015901680101E010E09E01D5
:1032D0002F5F3F4F50E040E070E060E00E94CF1869
:1032E000182F882399F1F401608171818281938183
:1032F0000E94F32C643671058105910500F1870168
:10330000950150E040E070E060E0872D0E94CF180A
:10331000B82EB701C6010E94A02311E0998198132D
:1033200010E01B2139F00E94D82CF40160837183D6
:1033300082839383812F2196EDE00C94EE35B701C3
:10334000C6010E94A02399818913D9CFA701B60194
:10335000C5010E942E36EECFA1E0B0E0E2EBF9E12C
:103360000C94D9350091B8011091B9010A5F1F4F33
:10337000EE24E394F12C9E012F5F3F4F42ED53E08A
:1033800063E082E00E945B19182F882321F0CE01B0
:1033900001960E94E025812F2196E6E00C94F535F8
:1033A000A4E0B0E0E6EDF9E10C94D7356B010091B3
:1033B000B8011091B9010F5F1F4F84E0E82EF12C86
:1033C0009E012F5F3F4F4EEC53E061E080E00E9492
:1033D0005B19882361F049815A816B817C8140931C
:1033E000CA035093CB036093CC037093CD034091F9
:1033F000CA035091CB036091CC037091CD03F601C9
:1034000040835183628373832496E8E00C94F33500
:10341000B0E0A0E0EEE0FAE10C94D5357C015B0170
:103420006A010E948C1801E010E0882311F00AE084
:1034300010E0C1E0D0E0B501C701F60109958111A6
:1034400004C021960C171D072CF4CDB7DEB7EAE0B7
:103450000C94F135CC9F9001CD9F300D300D11248F
:1034600090E080E045E34A95F1F70000019682176D
:103470009307C1F7E0CF0F931F93CF93DF93EC0136
:103480008B0140ED59E10E94081A811106C080E0CD
:10349000DF91CF911F910F9108954CEA59E1B80146
:1034A000CE010E94081A882391F34DE159E1B80139
:1034B000CE010E94081AECCFA1E0B0E0E2E6FAE10A
:1034C0000C94DB350091B8011091B901C801019647
:1034D00024E0FB01DC0101900D922A95E1F764E004
:1034E00070E00E94A023F8018083CE0101960E9423
:1034F000D5258981F801868361E070E0CE010196CF
:103500000E94A023F801858367817085818592855B
:103510000091C6031091C7032091C8033091C903DD
:10352000601771078207930751F06093C603709389
:10353000C7038093C8039093C9030E94F515219691
:10354000E4E00C94F7350E94EB2F0E9474130E9464
:10355000F82F08950E94FD2F0E9489130E941B30AE
:1035600008950E94652C0E94D12F0E945A130E9438
:10357000A31A0E94AA1A0E946A13FBCF8091E0034B
:1035800080FF0DC06091300170E0660F771F6038DA
:10359000710570F56115710569F1862F089581FF38
:1035A00007C06091300184E0689FB0011124EFCF23
:1035B0006091300182FD0AC08091DF038823A9F069
:1035C00020912F0160913001821710F088E0ECCF3C
:1035D000869FC001112433E0880F991F3A95E1F7C7
:1035E000622F70E00E94AC35D2CF68E070E0D5CF9A
:1035F0008FE7089581E008958091E00380FF0CC07B
:1036000060912C0170E075956795759567956115CA
:10361000710549F1862F089581FF06C060912C0144
:1036200070E075956795F3CF60912C0182FD0BC01A
:103630009091DE039923A1F060912B0180912C01E0
:10364000961738F0682F70E06038710500F38FE747
:103650000895899FC001112470E00E94AC35F4CF19
:1036600061E070E0D7CF81E00895803F31F40E949F
:10367000BE1A81958093E4030895813F19F40E9456
:10368000BE1AF8CF823F31F40E94BE1A8195809312
:10369000E3030895833F19F40E94BE1AF8CF893FCF
:1036A00029F40E94FC1A8093E50308958A3F21F4CF
:1036B0000E94FC1A8195F7CF8B3F31F40E94FC1ACF
:1036C00081958093E60308958C3F19F40E94FC1ABB
:1036D000F8CF843F31F48091E20381608093E2036C
:1036E0000895853F21F48091E2038260F7CF863F01
:1036F00021F48091E2038460F1CF873F21F480912F
:10370000E2038860EBCF883F21F48091E20380617F
:10371000E5CF8D3F31F48091E00381608093E00339
:1037200008958E3F21F48091E0038260F7CF8F3FB0
:10373000B9F78091E0038460F1CF9091E303803F7B
:1037400059F48091E40387FF0DC01092E4039111B6
:103750000BC01092DF0308C0813F81F48091E40325
:1037600018169CF3992381F08091E5039091E6036C
:10377000892B09F064C01092DE030895823F49F45A
:1037800097FFF0CF1092E3038091E4038111ECCF17
:10379000E0CF833F19F41916ACF3E4CF2091E50391
:1037A000893F29F41216F4F61092E503DBCF8A3F25
:1037B00019F427FFD7CFF8CF2091E6038B3F29F4E8
:1037C00027FFD0CF1092E603CDCF8C3F19F412160D
:1037D000CCF3C8CF843F31F48091E2038E7F809395
:1037E000E203C0CF853F21F48091E2038D7FF7CFC4
:1037F000863F21F48091E2038B7FF1CF873F21F454
:103800008091E203877FEBCF883F21F48091E20330
:103810008F7EE5CF8D3F31F48091E0038E7F8093E2
:10382000E003A0CF8E3F21F48091E0038D7FF7CF9E
:103830008F3F09F097CF8091E0038B7FF0CF089501
:103840008091B20383FF7EC081E992E00E94F70677
:103850008091E2031F928F938CE892E09F938F9365
:103860000E9490078AE892E00E94F7068091E303A5
:10387000282F082E000C330B3F938F9387E892E09C
:103880009F938F930E94900785E892E00E94F7062D
:103890008091E403282F082E000C330B3F938F9365
:1038A00082E892E09F938F930E94900780E892E0D5
:1038B0000E94F7068091E503282F082E000C330B99
:1038C0003F938F938DE792E09F938F930E94900791
:1038D0008BE792E00E94F7068091E603282F082EDE
:1038E000000C330B3F938F9388E792E09F938F9365
:1038F0000E94900785E792E00E94F7068091DF031F
:103900001F928F9382E792E09F938F930E9490077C
:1039100080E792E00E94F7068091E0031F928F9368
:103920008DE692E09F938F930E9490078AE692E043
:103930000E94F7068DB79EB74C960FB6F8949EBFBF
:103940000FBE8DBF0E94CC2C9C019091E30380910F
:10395000E403982B21F03093DD032093DC03909156
:10396000E5038091E603982B21F03093DB0320934D
:10397000DA0381EE93E00E94212B089586E0E1EEC8
:10398000F3E0DF011D928A95E9F71092DF031092B0
:10399000DE031092E0030895FC01828181110EC0C4
:1039A000838181110BC08481811108C091E08581E0
:1039B000811101C090E0892F8170089581E0FCCFD2
:1039C000A6E0B0E0E6EEFCE10C94DC3586E0E1EE4A
:1039D000F3E0DE01119601900D928A95E1F71092C5
:1039E000E3031092E4031092E5031092E6038B8147
:1039F0009C81892B89F08091DC039091DD030E94EA
:103A0000E42CAC019091DF039923C9F1809131013D
:103A10008417150608F440C08D819E81892B91F092
:103A20008091DA039091DB030E94E42CAC01909129
:103A3000DE03992309F471C080912D0184171506C6
:103A400008F479C0BE016F5F7F4F81EE93E00E9462
:103A50001D2C811105C081EE93E00E94CC1C8111C8
:103A60000E94201C86E0FE013196A1EEB3E0019099
:103A70000D928A95E1F72696E3E00C94F8352091B3
:103A800032018AE0289F900111242417350720F67F
:103A90009F5F9093DF0302C09F3FD1F71B811123EB
:103AA00059F00E94BE1A9FEF11160CF491E0899F05
:103AB000802D11248093E3031C81112359F00E946F
:103AC000BE1A9FEF11160CF491E0899F802D1124EE
:103AD0008093E4033091E303332309F49DCF2091D5
:103AE000E403222309F498CF45EB3403C0011124E9
:103AF000992359F09093E30345EB2403900111249B
:103B0000332339F03093E40387CF81E08093E303DC
:103B1000F3CF81E08093E4037FCF20912E018AE0F0
:103B2000289F900111242417350708F08BCF9F5F41
:103B30009093DE0302C09F3FD1F71D81112359F0FE
:103B40000E94FC1A9FEF11160CF491E0899F802DC2
:103B500011248093E5031E81112359F00E94FC1A61
:103B60009FEF11160CF491E0899F802D1124809312
:103B7000E6033091E503332309F464CF2091E60393
:103B8000222309F45FCF45EB3403C00111249923AC
:103B900059F09093E50345EB24039001112433235E
:103BA00039F03093E6034ECF81E08093E503F3CF05
:103BB00081E08093E60346CF83E290E00E943E36A8
:103BC000863F89F484E290E00E943E368A3C59F4B4
:103BD00085E290E00E943E3691E0863709F090E061
:103BE000892F8170089580E0FCCFCF93C82F6FEFAD
:103BF000811166EF83E290E00E944C366FEFC111B5
:103C00006AEC84E290E00E944C366FEFC11166E7E7
:103C100085E290E00E944C36CF910895089586E2A7
:103C200090E00E943E36682F70E090E080E00895BA
:103C30000895CF93C62F0E94181E6C2F86E290E045
:103C40000E944C36CF91089580E00E94F51D60E0FF
:103C500070E0CB010E94191E0E9491210E94DB227C
:103C600081E00E94F51D08950E940E1E0E940F1E05
:103C70000E94181E0E94DC1D811102C00E94241E99
:103C80000895CF93FB01C281CC2309F19C012251FD
:103C90003F452031310520F582510E94EB22C0E0E2
:103CA0008C2FCF91089581E00E94560D43E062E091
:103CB00081E00E947608F3CF81E00E94620D43E02C
:103CC00062E081E00E947608EBCF82E0F6CF80319F
:103CD000FFE59F0789F381319F45B9F3C1E0E0CF4C
:103CE0008031EFE59E07F9F281319F45C9F682E008
:103CF000DBCF2FEFFC0120830895EF92FF920F930B
:103D00001F93CF93DF93EC01062F88812091E90365
:103D10003091EA03232B79F08E3F09F057C0898157
:103D2000833020F08550833008F050C0602FCE01E2
:103D30000E94841F4BC08C3009F4A0C0D0F48430A2
:103D400009F483C060F4823009F449C008F070C0FF
:103D50008130C9F1602FCE010E94791E37C08630B4
:103D600009F489C008F47CC08A30A0F78FEF8883FB
:103D70002DC0803109F49FC0D8F48E3009F48AC078
:103D800008F480C08091330190913401892BF1F0C7
:103D90006B8170E06D317105C8F489819A81AE0143
:103DA0004C5F5F4F9827892798270E94B6220EC044
:103DB000823109F486C008F481C0833109F492C0CD
:103DC0008E3F41F6B3CF198289E08A83602FCE01FE
:103DD0000E94E82DCDB7DEB7E6E00C94F535898179
:103DE000823071F0833079F0813009F0B3CF0E94D6
:103DF000D82C0E94C6356A837B838C839D83E6CF53
:103E00000E940F1EF6CF8091330190913401892BCF
:103E1000E9F27E0182E0E80EF11C10E0812F0E94A1
:103E20006916F70181937F011F5F1830B9F7CECF74
:103E30008981823009F08ECF6A817B818C819D815E
:103E40000E94C6350E94191EC1CF4B816A818981AB
:103E50000E94E9209827892798279D838C83B6CFD5
:103E60002C813D813227232732274B816A8189812A
:103E70000E940B21ABCF0E949121A8CF0E948C22DF
:103E80008983A4CF0E948E229827892798279A8316
:103E900089839CCF6B8170E06D31710508F096CFFE
:103EA00089819A81AE014C5F5F4F982789279827B7
:103EB0000E9491228BCF0E94DB2288CF0E94D720C4
:103EC000DFCF6B8170E06D31710508F07FCF8981A4
:103ED0009A81AE014C5F5F4F9827892798270E94EF
:103EE000102274CF6B8170E06D31710508F06ECFD8
:103EF00089819A81AE014C5F5F4F98278927982767
:103F00000E94342263CF0895A8E0B0E0EAE8FFE120
:103F10000C94D9358C01603269F5DC011196EC9175
:103F20001197EE3038F5F0E0E257F94C0C94C035BB
:103F300088E0E4E4F1E0DE01119601900D928A95AB
:103F4000E1F780E2F80111928A95E9F785E0D8015E
:103F50008C9311961C92119712961C92129713969D
:103F60001C92139788E0FE013196149601900D92F1
:103F70008A95E1F72896E6E00C94F5358CEEF80189
:103F8000808381E0818312821382F4CF13968C9117
:103F90001397682F70E0762F662712968C91860F04
:103FA000972F911D092E000CAA0BBB0B25E0880F43
:103FB000991FAA1FBB1F2A95D1F7AC01BD01405E16
:103FC0005F4F6F4F7F4F481759076A077B0790F283
:103FD0008C3EE1E09E07A105B10560F64D3EF1E0A3
:103FE0005F076105710520F04CEE51E060E070E084
:103FF000481B590BBC016C547D4FC8010E941836F8
:10400000B9CF1296FC9012971396EC9040E06E2D6B
:104010008F2D0E942721982789279827F8019183BF
:10402000808341E06E2D8F2D0E94272198278927BC
:104030009827D80113969C938E9312979BCFFC01DF
:10404000258136813227232732272115FCE53F07BA
:1040500041F48091330190913401892B11F430E0C7
:1040600020E041E0D80114968C91811101C040E01C
:10407000F801638182810E9460217CCF40E250E0A0
:104080006FEF70E00E94373680913301D8018C9336
:104090008091E90311968C936DCF81E090E090932D
:1040A000EA038093E90382E390E09093E80380932E
:1040B000E7030E94CC2C5ECF80913301F80180830E
:1040C0008091E90381838091E703828353CF40E2AB
:1040D00050E06FEF70E00E9437364CCF12968C9113
:1040E0001297811147CF80E2F80111928A95E9F782
:1040F0001C9211961C92119712961C923BCFA5E030
:10410000B0E0E5E8F0E20C94DD359093450480934F
:104110004404811520E2920730F40E94DE072596C0
:10412000E2E00C94F93580EF89838A8381E08B8308
:104130000E94CC2C8160782F9D838C8349815A8189
:104140006B818D810E944C09EACFA5E0B0E0EBEADB
:10415000F0E20C94DD35909345048093440481157E
:1041600020E2920730F40E94F4072596E2E00C94D6
:10417000F93580EF89838A831B820E94CC2C816071
:10418000782F9D838C8349815A816B818D810E9418
:104190004C09EBCFCF93DF93EC010E947F20CE013F
:1041A0000E94A520DF91CF91089581E0089584E0D9
:1041B000089550E0440F551F9CE0699F400D511D2C
:1041C000112490E6899F400D511D1124CA01879644
:1041D00008950F931F93CF93DF938430C8F4683012
:1041E000B8F44630A8F40E94D9208C010E943E36D3
:1041F000C82FD0E0DC2FCC27C80101960E943E36A4
:104200009E01282BC901DF91CF911F910F91089535
:1042100090E080E0F8CF0F931F93CF93DF93122F9E
:10422000032F843078F4683068F4463058F40E94E4
:10423000D920EC01602F0E944C36612FCE010196EF
:104240000E944C36DF91CF911F910F910895FF92FC
:104250000F931F93CF93DF93F42E843070F5623069
:1042600060F528E0829F8001112434E0639FB00153
:104270001124060F171F09551E4F82E090E04423BA
:1042800011F090E080E0800F911F0E943E36C82F11
:10429000D0E0DC2FCC2783E090E0FF2011F081E01C
:1042A00090E0800F911F0E943E369E01282BC9018D
:1042B000CDB7DEB7E5E00C94F63590E080E0F8CFBE
:1042C0000F931F93CF93DF93142F022F843020F589
:1042D000623010F598E0899FE001112484E0689F26
:1042E000B0011124C60FD71FC955DE4F82E090E000
:1042F000442311F090E080E0632F8C0F9D1F0E94FB
:104300004C3683E090E0112311F081E090E0602FC3
:104310008C0F9D1F0E944C36DF91CF911F910F9102
:104320000895B0E0A0E0E7E9F1E20C94D135809087
:1043300033019090340181E090E0909334018093B8
:1043400033019CEAA92E90E0B92E2CECC22E20E07D
:10435000D22ED0E0C0E07601612C7C2E20C00E94DD
:104360009F0721E030E08C171D0641F03CF0F8017A
:10437000EE0FFF1FEE0DFF1D25913491402F662D8E
:10438000872D0E940B210F5F1F4F0630110539F753
:104390008CE0E80EF11C639488E0681619F010E0D8
:1043A00000E0DDCF750110E00E94A1078C171D060B
:1043B00069F164F1F7012591349141E0612F872D76
:1043C0000E946021F70132962591349140E0612FDF
:1043D000872D0E94602184E0E80EF11C1130A1F4C9
:1043E000219688E0A80EB11C80E6C80ED11CC4300E
:1043F000D10509F0B0CF9092340180923301CDB74E
:10440000DEB7EEE00C94ED3511E0CECF21E030E0E8
:1044100041E0612F872D0E94602121E030E0D6CF5E
:10442000EF92FF920F931F93CF93DF93EC018A01DA
:104430007C01E60EF71ECE018796CE15DF0529F426
:10444000CDB7DEB7E6E00C94F535C03821E0D207F1
:1044500040F40E943E36F80180830F5F1F4F219683
:10446000EACFF8011082F9CFB0E0A0E0EAE3F2E28F
:104470000C94D7358C016A018038914080F480E833
:1044800091E0801B910B8617970748F07801E60EA4
:10449000F71EE801CE018796CE15DF0529F4CDB7CA
:1044A000DEB7E8E00C94F335C03821E0D20740F4E1
:1044B000FE01E01BF10BEC0DFD1D60810E944C36EE
:1044C0002196E8CF2091E9033091EA03232BC9F428
:1044D000703F39F4603FA9F4809144049091450401
:1044E0000895843070F4783038F4663050F4462FF4
:1044F000672F0E94E92008957D3F31F441E062304A
:1045000040F090E080E008957C3FD9F76230C8F732
:1045100040E00E942721089580E1089589E392E018
:104520000895EF92FF920F931F93CF93DF93EC01C7
:104530008A017C01E60EF71ECE0189539E4FCE15EF
:10454000DF0529F4CDB7DEB7E6E00C94F535C933C5
:1045500022E0D20740F40E943E36F80180830F5FCC
:104560001F4F2196E9CFF8011082F9CFB0E0A0E00B
:10457000ECEBF2E20C94D7357C016A018C01060F5A
:10458000171FEC01CE0189539E4FC017D10729F4A4
:10459000CDB7DEB7E8E00C94F335C93322E0D2079B
:1045A00040F4FE01EE19FF09EC0DFD1D60810E9433
:1045B0004C362196E7CFCF93DF93C7ECD1E060E094
:1045C000CE010E944C362196C11584E0D807B9F778
:1045D000DF91CF910895A4E0B0E0E1EFF2E20C9416
:1045E000D635F82E2FE0281708F4A5C08FEF93E0FA
:1045F0000E943E3681119FC007EC11E0F11036C0D9
:1046000019821A821B821C82BB24BA9478015FEF44
:10461000E51AF50AC8010E943E3689831A8288236A
:1046200009F489C0813009F07FC0680182E0C80EBA
:10463000D11CC7010E943E36E82E8A83882309F4E4
:104640007AC0C6010E943E36F82E8FEF8E0D833061
:10465000D8F46801E3E0CE0ED11CFB82FF2021F0EC
:10466000CE0101960E947A248601D0CF011544E044
:10467000140709F460C0C8010E943E36811101C0D0
:10468000FA940F5F1F4FBACF8BEF8E0D833030F54A
:10469000C8010396FB826C01FF2031F36801F4E04E
:1046A000CF0ED11C0E943E368C838823E9F28B8189
:1046B0009C8181302FEF920710F0982F882746E0D9
:1046C000E41631F057E0E51631F00E94CA20CCCF55
:1046D0000E947F20C9CF0E94A520C6CF84E0E812A7
:1046E000C3CF6801E4E0CE0ED11CC80103960E943E
:1046F0003E36FF2001F18823F1F08150990BB89EDE
:104700009001B99E300D11244F2D4150550BCA0117
:10471000820F931F019708F4A7CFEFE9FFE03197CD
:10472000F1F700C00000F6CF60E0CE0101960E94D4
:104730001424670199CF2496E9E00C94F23508958A
:10474000FC01680F791F8FEF91E36E177F0709F463
:1047500008952191822728E030E087FF06C0880F66
:10476000892721503109C9F7F0CF880FFACFB0E07F
:10477000A0E0EDEBF3E20C94D835E82FF0E0E05642
:10478000FB4FD490282F26952695269530E0F901E9
:10479000E05CFA4F0491877010E0082E02C0159576
:1047A00007950A94E2F701701127F901E05DFA4FCD
:1047B000E490F12C082E02C0F594E7940A94E2F7F5
:1047C00091E0E922FF24F901E05EFA4FC491D0E0C4
:1047D00002C0D595C7958A95E2F7C170DD2701150E
:1047E000110519F081EE0E949709E114F10419F006
:1047F00086EE0E9497098D2D0E94320AE114F10481
:1048000019F086EE0E94E8090115110519F081EEF4
:104810000E94E809CD2B19F08CE20E94320ACDB734
:10482000DEB7E7E00C94F435EF92FF920F931F93FD
:10483000CF93DF93EC01162F0AE08881882309F4D7
:1048400054C0813009F04EC08981813099F47E01D5
:1048500022E0E20EF11C8A810E94320AE7012196D1
:10486000812F815050F3EFE9FFE03197F1F700C05D
:104870000000F7CF823041F47E0182E0E80EF11CA7
:104880008A810E949709EACF833041F47E01E2E0F9
:10489000EE0EF11C8A810E94E809E0CF843011F00D
:1048A0002196DDCF2A81229690E080E0AE014F5F15
:1048B0005F4F2053330B2A30310548F0019778F2CF
:1048C000EFE9FFE03197F1F700C00000F7CF089F54
:1048D000B001099F700D1124C901860F971F29810E
:1048E000EA01E4CF0E94B723BACFCDB7DEB7E6E046
:1048F0000C94F53560E00E9414240895AAE0B0E01D
:10490000E4E8F4E20C94DB35182F062F662399F1C6
:104910000E94CC2C1E832DEF2F8321E028878160FD
:104920009A8789874E815F81688579858A850E940B
:104930004C098FE39FE10197F1F700C000000023CD
:10494000F9F00E94CC2C19832DEF2A831B82816001
:104950009D838C8349815A816B817C818D810E94EA
:104960004C098FE39FE10197F1F700C000002A9600
:10497000E4E00C94F7350E94CC2C1E832CEFCCCFB6
:104980000E94CC2C19832CEFE0CF8FE891E00197A7
:10499000F1F700C0000008950F931F93CF93DF93AA
:1049A0009091020181E098279093EF03282F291B13
:1049B0002093EE03909102018093F0039091020105
:1049C0008093ED0380910201811106C086EF8093F0
:1049D000360185EF8093350120913601E22FE29573
:1049E000EF70F0E061A12F7081E090E0AC0101C0B8
:1049F000440F2A95EAF7342F3095362331A322A1AC
:104A0000242B22A320913501E22FE295EF70F0E0F4
:104A100031A12F7001C0880F2A95EAF7982F909541
:104A2000932391A392A1892B82A30E94C524609114
:104A3000F00343EF53E0C6E3D1E005E311E0FA01F0
:104A400026C02991822F82958F7090E0DC0190968C
:104A50008C9190E02F7002C0959587952A95E2F78A
:104A60008170D8019D918D01292F22952F7030E002
:104A7000D90190962C9130E09F7002C03595279512
:104A80009A95E2F790E020FD92E0892B81938E2F9A
:104A9000841B8617B0F2DF91CF911F910F9108957B
:104AA000CF92DF92FF920F931F93CF93DF9310E08B
:104AB00000E084E0C82ED12C8091F003181748F054
:104AC000802FDF91CF911F910F91FF90DF90CF90BA
:104AD0000895C12FD0E0FE01EA5CFE4F8081E82FEF
:104AE000E295EF70F0E0E0A1F0E08F7002C0F59584
:104AF000E7958A95E2F7E170DE01AB5CBE4F4C9121
:104B0000A42FA295AF70B0E090968C9190E04F707A
:104B100002C0959587954A95E2F780FD44C080E0F4
:104B20008E2BDE01AD50BC4FEC919E2F93709817E9
:104B3000C1F1EE0FEE0FE82BEC93F090EF03F10EC6
:104B4000EF70F0E0E654FE4FCF50DC4F808198814B
:104B5000890F888320E0843064F0EF2DF0E0E55188
:104B6000FC4F80818F5F808360E08F2D0E947E24C8
:104B700021E088818D3F64F4EF2DF0E0E551FC4F9A
:104B800080818150808361E08F2D0E947E2421E00E
:104B90008881082E000C990BB6010E94AC358883E1
:104BA000022B1F5F89CF82E0BBCF4091F00350E022
:104BB0006091EF0370E065517C4F0E942E3608959E
:104BC000B0E0A0E0E6EEF5E20C94D7356C01D0E061
:104BD00080E09091ED03D91740F081110E943E13BF
:104BE000CDB7DEB7E8E00C94F335F090EE03FD0EA0
:104BF0000F2D10E005511C4FF601ED0FF11DC08186
:104C0000F8019081C91BEC2E1E1444F09C2FC7FDA7
:104C100090E0C91BC1110DC0DF5FDBCFEA94F80142
:104C200080818F5F808360E08F2D0E947E2481E0F1
:104C3000EBCFCF5FF80180818150808361E08F2DC1
:104C40000E947E2481E0E6CF80912B011F928F93FA
:104C500080912C011F928F9380912F011F928F932F
:104C6000809130011F928F93809131011F928F9319
:104C7000809132011F928F9380E595E09F938F93EF
:104C80000E9490078DB79EB70E960FB6F8949EBF00
:104C90000FBE8DBF0895883228F58E3108F072C09E
:104CA0008B3041F130F4873009F4CFC08FEA96E0C1
:104CB000E0C0833109F45FC08431C1F781ED96E033
:104CC0000E94F7068091F903882309F4FEC0109230
:104CD000F9031092F8031092F7031092F603109262
:104CE000F50320C08F3409F4C7C0D8F5893231F3F9
:104CF0008833E1F684ED96E00E94F7060E942426B0
:104D00001F9281E08F931F9288E08F938DEC95E046
:104D10009F938F930E9490070F900F900F900F908A
:104D20000F900F902091F903222309F4C9C08091BC
:104D3000F5039091F603009711F48AEC91E09F93AC
:104D40008F931F922F938DE996E09F938F930E94EC
:104D500090070F900F900F900F900F900F9081E0A1
:104D60000895813509F49CC008F49CC0823509F08F
:104D70009DCF81E082C083EC96E00E94F7060E94FE
:104D80002426D0CF8D518093F903833009F442C09B
:104D900058F48130C1F08230A1F11092F90380EC17
:104DA00096E00E94F7061BC0853009F445C0D8F193
:104DB000863099F78BE291E09093F8038093F703A4
:104DC00082E192E008C082E391E09093F80380933F
:104DD000F7038EEC91E09093F6038093F5038091B6
:104DE000F903882309F49ECF1F928F938CEB96E0F2
:104DF0009F938F930E9490070F900F900F900F90AA
:104E000091CF81E391E09093F8038093F70387EDCE
:104E100091E0E1CF80E391E09093F8038093F70372
:104E200083EE91E0D8CF8FE291E09093F8038093E6
:104E3000F70380EF91E0CFCF8CE291E09093F803FD
:104E40008093F7038FEF91E0C6CF81E0809332012A
:104E500084E1809331018AE0809330018EE1809378
:104E60002F0188E080932C0188E280932B0182EB54
:104E700096E00E94F70656CF8AE0E091F703F091A2
:104E8000F8033097D1F02081082E000C990B820F87
:104E9000911D8F3F910541F03CF08FEF808307C05B
:104EA0008FEFEBCF86EFE9CF97FFF8CF10828081AD
:104EB0001F928F9389EA96E09BCF86EA96E0D9CF3E
:104EC00089E996E00E94F7064ACF80E00895CF93E3
:104ED000C82F1F928F938AEE96E09F938F930E9424
:104EE000900781E001C0880FCA95EAF70E942A0D59
:104EF0000E94D70C0F900F900F900F90CF910895B4
:104F0000B0E0A0E0E6E8F7E20C94D835EBEFE80F6C
:104F1000EF3308F044C1F0E0E456F94C0C94C0358E
:104F20000E948C121F928F938AE99AE09F938F932D
:104F30000E9490070E94871283FB992790F91F9285
:104F40009F9382FB992790F91F929F9381FB99274A
:104F500090F91F929F93982F91701F929F931F9289
:104F60008F9381E59AE09F938F930E9490070E9410
:104F7000911293FB222720F91F922F9387FB222760
:104F800020F91F922F9386FB222720F91F922F933F
:104F900085FB222720F91F922F9384FB222720F9DB
:104FA0001F922F9383FB222720F91F922F9382FBBE
:104FB000222720F91F922F9391FB222720F91F927D
:104FC0002F93292F21701F922F9381FB222720F9E5
:104FD0001F922F93282F21701F922F939F938F93AF
:104FE00082E599E09F938F930E9490078DB79EB7BB
:104FF0008A960FB6F8949EBF0FBE8DBF81E01CC08D
:105000008AE59BE00E94F7060E942813F7CF8DE9FE
:1050100097E00E94F706F2CF8091B203807F8093E1
:10502000B20386E797E00E94F70686E59BE00E94C0
:10503000F70681E08093FA03CDB7DEB7E7E00C9482
:10504000F4358AE39BE00E94F7068091330190914A
:105050003401892B99F20E949508D0CF9091B20328
:10506000892F8E7F90FF81608093B20380FF03C001
:105070008EE29BE0CECF81E29BE00E94F70680911A
:10508000B203817F8093B203B9CF9091B203892F8D
:105090008D7F91FF82608093B20381FF08C084E11D
:1050A0009BE00E94F7068091B2038160EBCF86E01F
:1050B0009BE0AFCF9091B203892F8B7F92FF8460EA
:1050C0008093B20382FF03C087EF9AE0EACF87EEB6
:1050D0009AE09FCF9091B203892F877F93FF8860DA
:1050E0008093B20383FF03C08BED9AE0DACF8EEC9E
:1050F0009AE08FCF87E292E09F938F9383E797E0C8
:105100009F938F930E9490070F900F900F900F9096
:1051100075CF0E94D82C062FF72EE82ED92EC091DD
:105120003004C7FBCC27C0F910912B04D091430168
:105130000E94F32ADF92EF92FF920F931F92CF9378
:105140001F921F931F92DF931F928F938FEE96E013
:105150009F938F930E9490078DB79EB70E960FB6C0
:10516000F8949EBF0FBE8DBF49CF0E94D70C90917F
:105170003004892F97FB87F980588093300487FF8C
:1051800003C084EC9AE045CF89EB9AE042CF80E0FF
:105190000E94672733CF8953FBCF8D51F9CF87EB1F
:1051A0009AE00E94F70680E047CF80E008950E94D1
:1051B000D5280895CF93C82F8091FA038130C1F08C
:1051C000882339F0823009F444C01092FA0380E059
:1051D0000DC00E9461118232D1F78C2F0E94D52818
:1051E00081111BC08C2F0E9480278170CF91089560
:1051F0000E946111823289F38C2F0E94D72881117D
:105200001BC0C431D9F060F4CB3071F0C031D1F0A3
:1052100084EE96E00E94F70613C081E090E0E5CFAF
:10522000C93261F0C833A1F786E797E00E94F7061C
:1052300086EE96E00E94F70681E0D7CF1092FA033F
:1052400080E0D3CF82E08093FA0388E30E944B266C
:10525000F3CF8C2F0E944B2681E0C8CF8EE1499B73
:1052600002C08150E1F7499BFECF0895599880E232
:105270008A95F1F7599A0895FC013BE03A95F1F7C8
:1052800098E020E080E031E040E14A95F1F7880FB6
:10529000499B02C08160232742E04A95F1F7000054
:1052A00040E14A95F1F7915079F790E19A95F1F73D
:1052B00099B132E03A95F1F7000040E14A95F1F7F3
:1052C0009695917092272081920F90830895A1E086
:1052D000B0E0EDE6F9E20C94D93519828C017C013D
:1052E000E60EF11C0E151F0541F481E09981911124
:1052F00080E02196E6E00C94F5350E942E29CE013F
:1053000001960E943C29F80181938F01EBCF519ABD
:10531000599A08955198599AE99AE9E6F0E08081FE
:10532000837F808308956150770B91E001C0990FCE
:105330006A95EAF720E031E0911108C0222391F04C
:10534000599A80E28A95F1F759980895492F482390
:1053500039F0599A232740E24A95F1F79695ECCF18
:105360005998F9CF5998EDCFFF920F931F93CF9390
:10537000DF93EC018C01060F111DC017D10729F432
:10538000CDB7DEB7E5E00C94F635F9900E943629EA
:1053900068E08F2D0E949329F0CF1F920F920FB6D5
:1053A0000F9211240F931F932F933F934F935F936B
:1053B0006F937F938F939F93AF93BF93EF93FF93DD
:1053C000CF93DF930F92CDB7DEB719820E942E29BB
:1053D000CE0101960E943C29082F06950695069558
:1053E000282F22952570902F9570290F922F93705A
:1053F00026952695920F982797708981982B09F00A
:105400005CC0063008F059C080E18A95F1F7599ADE
:10541000519A82E08A95F1F700C0599888E0089F78
:1054200080011124D801AD5FBE4F1696ED91FC911D
:1054300017973097A9F06091B8017091B90114964F
:105440002D913C911597260F371F11968D919C91A8
:105450001297680F791F13964C9113978C910995A9
:10546000F801ED5FFE4F6381662351F02091B80192
:105470003091B90184819581820F931F0E94B429D4
:105480000E94362980E18A95F1F759985198599AE6
:1054900080E18A95F1F7F801ED5FFE4F60816623A8
:1054A00051F02091B8013091B90181819281820F30
:1054B000931F0E9467290E942E290F90DF91CF91A0
:1054C000FF91EF91BF91AF919F918F917F916F91DC
:1054D0005F914F913F912F911F910F910F900FBEB0
:1054E0000F901F9018950F931F93CF93DF93EC01AC
:1054F00006970CF04CC0F894519A599885E08A951B
:10550000F1F700009C2F969595708C2F8570980F61
:10551000892F83709695969523E0CC0FDD1F2A95F1
:10552000E1F7980F8E01092B0E94362900C068E030
:10553000802F0E94932980E18A95F1F75198599A1A
:10554000499B1EC087E090E049991CC0FE01ED5FB9
:10555000FE4F63816623F9F02091B8013091B901C3
:1055600084819581820F931F0E946729811113C046
:10557000519A599A7894DF91CF911F910F91089584
:1055800000C0DECF019729F4519A599A789480E0AF
:10559000F2CF00C0D9CF0E942E2980E28A95F1F780
:1055A0005998519A80E18A95F1F7CD5FDE4F688175
:1055B000662351F02091B8013091B90189819A8117
:1055C000820F931F0E94B4290E943629789481E0AB
:1055D000D2CF9093FD028093FC0208959093010432
:1055E0008093000408950E945218811103C0809195
:1055F000FB030895E0910004F0910104309729F035
:105600000190F081E02D0995089580E00895E091E2
:105610000004F0910104309799F020914301222376
:1056200059F02091300427FF07C0DC012C9111961E
:105630002C93119726E02C930280F381E02D09959D
:105640000895E0910004F0910104309739F022E0D0
:10565000DC012C930480F581E02D099508952091BB
:10566000FE033091FF032817390771F09093FF0371
:105670008093FE03E0910004F0910104309721F043
:105680000680F781E02D099508952091FC03309163
:10569000FD032817390771F09093FD038093FC03F5
:1056A000E0910004F0910104309721F00084F1852D
:1056B000E02D09950895FC013296809143018823DD
:1056C00021F0809130049EE187FF96E080E09150C8
:1056D00008F4089521912223D1F38F5FF8CF662338
:1056E00001F1209143012223F1F02091300427FFA2
:1056F0001AC0462F4695469546954E3190F46770F0
:1057000021E030E002C0220F331F6A95E2F7840FD8
:10571000911DFC01828190E02823392381E0232B15
:1057200069F480E00895FC013296089621912617CD
:1057300021F0E817F907D1F7F4CF81E008959C0133
:10574000FC0132969FEF80E04191461751F09F3F58
:1057500019F4411101C0982F8F5F8630A9F79F3F40
:1057600009F40895290F311D97FD3A95F9016283D7
:105770000895FC01329608962191261303C0DF019B
:1057800011971C92E817F907B9F70895E62FE695E7
:10579000E695E695EE3168F4E80FF92FF11D677094
:1057A00021E030E001C0220F6A95EAF78281822B66
:1057B00082830895E62FE695E695E695EE3170F43E
:1057C000E80FF92FF11D677021E030E001C0220FD2
:1057D0006A95EAF7209582812823228308952091F3
:1057E0004301222339F02091300427FF03C00E9497
:1057F000C62B08950E949F2B0895209143012223D8
:1058000039F02091300427FF03C00E94DA2B08955D
:105810000E94B92B0895FC013296809143018823A0
:1058200051F08091300487FF06C08EE1DF011D92A8
:105830008A95E9F7089586E0F9CF46E050E00E94A6
:10584000213621E0892B09F420E0822F0895089564
:105850000E94272C0895811106C081E080930204E4
:105860000E94282C089582E0F9CF83E080930204FF
:105870000E94282C08950E942B2C089581E080938B
:1058800002040E94282C08950E943E2C0895089539
:1058900008950E94482C0895089508950E94472C69
:1058A0000895CF930E944C2C0E94D6170E944D2C35
:1058B000C0E08C2F0E946916811105C0CF5FC830EF
:1058C000C1F7CF91089581E0FCCF85B7806885BF8F
:1058D00085B7806885BF08951F921FB61F92112457
:1058E0008F939F93AF93BF9380910304811113C053
:1058F0008091460490914704A0914804B0914904D6
:105900004196A11DB11D8093460490934704A09336
:105910004804B0934904BF91AF919F918F911F901C
:105920001FBE1F90189580914E04843031F10E9463
:10593000F5081092030488E190E020E40FB6F89493
:10594000A895809360000FBE2093600083B7817F8D
:10595000846083BF83B7816083BF7894889583B761
:105960008E7F83BF0FB6F894A89580916000886100
:1059700080936000109260000FBE08950E94D70CC3
:105980000E94FA08089582E084BD93E095BD9AEFE5
:1059900097BD80936E0008952FB7F89480914604C8
:1059A00090914704A0914804B09149042FBF0895F5
:1059B0002FB7F89460914604709147048091480491
:1059C000909149042FBF08959C014FB7F89480919E
:1059D000460490914704A0914804B09149044FBFF8
:1059E000821B930B0895CF92DF92EF92FF922FB715
:1059F000F894C0904604D0904704E0904804F0909A
:105A000049042FBFA7019601261B370B480B590BE2
:105A1000CA01B901FF90EF90DF90CF90089578947C
:105A20001F921FB61F9211248F939F93AF93BF9322
:105A30008091460490914704A0914804B091490494
:105A40000196A11DB11D8093460490934704A09335
:105A50004804B0934904BF91AF919F918F911F90DB
:105A60001FBE1F90189587E797E7909301088093D2
:105A7000000888E19AE00FB6F894A895809360003A
:105A80000FBE90936000FFCF88E19AE00FB6F894C4
:105A9000A895809360000FBE90936000FFCF809127
:105AA0002A04089508959C0184E08093E9009FEF03
:105AB0008091E800915085FD06C085ED8A95F1F74B
:105AC00000009111F5CF8091E80085FF0CC050E0F7
:105AD00040E066E070E0C9010E94C0308091E800BB
